{
	"data": {
		"bytecode": {
			"linkReferences": {},
			"object": "610160604081905260006101408190526200001d91600491620001d2565b503480156200002b57600080fd5b5060405162003abf38038062003abf8339810160408190526200004e9162000278565b604080518082018252600b81526a11dbdd995c9b995913919560aa1b60208083019182528351808501855260058152640312e302e360dc1b908201529151902060e08190527f06c015bd22b4c69690933c1058878ebdfef31f9aaae40bbe86d8a09fe1b2972c6101008190524660a081815285517f8b73c3c69bb8fe3d512ecc4cf759cc79239f7b179b0ffacaa9a75d522b39400f81870181905281880195909552606081810194909452608080820193909352308183018190528751808303909301835260c09182019097528151919095012090529290921b9052610120526000805460ff1916905580620001448162000167565b50620001503362000180565b50600880546001600160801b0319169055620003a7565b80516200017c906003906020840190620001d2565b5050565b600680546001600160a01b038381166001600160a01b0319831681179093556040519116919082907f8be0079c531659141344cd1fd0a4f28419497f9722a3daafe3b4186f6b6457e090600090a35050565b828054620001e09062000354565b90600052602060002090601f0160209004810192826200020457600085556200024f565b82601f106200021f57805160ff19168380011785556200024f565b828001600101855582156200024f579182015b828111156200024f57825182559160200191906001019062000232565b506200025d92915062000261565b5090565b5b808211156200025d576000815560010162000262565b600060208083850312156200028c57600080fd5b82516001600160401b0380821115620002a457600080fd5b818501915085601f830112620002b957600080fd5b815181811115620002ce57620002ce62000391565b604051601f8201601f19908116603f01168101908382118183101715620002f957620002f962000391565b8160405282815288868487010111156200031257600080fd5b600093505b8284101562000336578484018601518185018701529285019262000317565b82841115620003485760008684830101525b98975050505050505050565b600181811c908216806200036957607f821691505b602082108114156200038b57634e487b7160e01b600052602260045260246000fd5b50919050565b634e487b7160e01b600052604160045260246000fd5b60805160a05160c05160601c60e05161010051610120516136c5620003fa60003960006121d701526000612226015260006122010152600061215a01526000612184015260006121ae01526136c56000f3fe6080604052600436106101695760003560e01c806374a8f103116100d1578063bb4351e81161008a578063e985e9c511610064578063e985e9c51461055e578063ecd1617a146105a7578063f242432a146105c7578063f2fde38b146105e757600080fd5b8063bb4351e814610491578063d2ddf529146104b1578063d8f6d596146104d157600080fd5b806374a8f103146103a25780638da5cb5b146103c25780639fb049aa146103ea578063a22cb4651461040a578063b98f25d31461042a578063babcc5391461045757600080fd5b806314ce65381161012357806314ce6538146102e85780632eb2c2d6146103085780634e1273f4146103285780634ec5d27e146103555780635c975abb14610375578063715018a61461038d57600080fd5b8062fdd58e146101ad57806301ffc9a7146101e05780630242f3511461021057806308dc9f421461024b57806309eef43e1461026d5780630e89341c146102bb57600080fd5b366101a857604080513381523460208201527f52a6cdf67c40ce333b3d846e4e143db87f71dd7935612a4cafcf6ba76047ca1f910160405180910390a1005b600080fd5b3480156101b957600080fd5b506101cd6101c8366004612a1c565b610607565b6040519081526020015b60405180910390f35b3480156101ec57600080fd5b506102006101fb366004612bd7565b6106a0565b60405190151581526020016101d7565b34801561021c57600080fd5b50600854600954600a54604080516001600160801b0390941684526020840192909252908201526060016101d7565b34801561025757600080fd5b5061026b610266366004612e02565b6106f2565b005b34801561027957600080fd5b50610200610288366004612885565b6008546001600160a01b0390911660009081526007602052604090205461010090046001600160801b0390811691161490565b3480156102c757600080fd5b506102db6102d6366004612d8c565b61073e565b6040516101d79190613126565b3480156102f457600080fd5b50610200610303366004612c11565b61081e565b34801561031457600080fd5b5061026b6103233660046128d3565b610b3c565b34801561033457600080fd5b50610348610343366004612a46565b610bd3565b6040516101d791906130ee565b34801561036157600080fd5b5061026b610370366004612da5565b610cfc565b34801561038157600080fd5b5060005460ff16610200565b34801561039957600080fd5b5061026b610d95565b3480156103ae57600080fd5b5061026b6103bd366004612885565b610dcb565b3480156103ce57600080fd5b506006546040516001600160a01b0390911681526020016101d7565b3480156103f657600080fd5b5061026b610405366004612c79565b610e19565b34801561041657600080fd5b5061026b6104253660046129e0565b61119f565b34801561043657600080fd5b5061044a610445366004612d3a565b6111ae565b6040516101d79190613041565b34801561046357600080fd5b50610200610472366004612885565b6001600160a01b031660009081526007602052604090205460ff161590565b34801561049d57600080fd5b5061026b6104ac366004612b16565b6112f7565b3480156104bd57600080fd5b5061026b6104cc366004612d57565b61133e565b3480156104dd57600080fd5b506104f16104ec366004612d8c565b6114c3565b6040516101d79190815181526020808301516001600160801b03169082015260408083015160ff16908201526060808301516001600160e81b031916908201526080808301516001600160f81b03199081169183019190915260a092830151169181019190915260c00190565b34801561056a57600080fd5b506102006105793660046128a0565b6001600160a01b03918216600090815260026020908152604080832093909416825291909152205460ff1690565b3480156105b357600080fd5b5061026b6105c2366004612dca565b6115b2565b3480156105d357600080fd5b5061026b6105e236600461297c565b6116b9565b3480156105f357600080fd5b5061026b610602366004612885565b611740565b60006001600160a01b0383166106785760405162461bcd60e51b815260206004820152602b60248201527f455243313135353a2062616c616e636520717565727920666f7220746865207a60448201526a65726f206164647265737360a81b60648201526084015b60405180910390fd5b5060009081526001602090815260408083206001600160a01b03949094168352929052205490565b60006001600160e01b03198216636cdb3d1360e11b14806106d157506001600160e01b031982166303a24d0760e21b145b806106ec57506301ffc9a760e01b6001600160e01b03198316145b92915050565b6006546001600160a01b0316331461071c5760405162461bcd60e51b815260040161066f90613210565b6107396107316006546001600160a01b031690565b8484846117db565b505050565b60008181526005602052604081208054606092919061075c906133af565b80601f0160208091040260200160405190810160405280929190818152602001828054610788906133af565b80156107d55780601f106107aa576101008083540402835291602001916107d5565b820191906000526020600020905b8154815290600101906020018083116107b857829003601f168201915b5050505050905060008151116107f3576107ee836118c6565b610817565b600481604051602001610807929190612ef7565b6040516020818303038152906040525b9392505050565b6008546000906001600160801b031661083d6040860160208701612d3a565b6001600160801b0316146108af5760405162461bcd60e51b815260206004820152603360248201527f476f7665726e65644e46543a20766f74696e67206973206e6f7420616c6c6f776044820152721959081bdb881d1a1a5cc81c1c9bdc1bdcd85b606a1b606482015260840161066f565b6008546001600160801b0316600760006108cc6020880188612885565b6001600160a01b0316815260208101919091526040016000205461010090046001600160801b0316106109585760405162461bcd60e51b815260206004820152602e60248201527f476f7665726e65644e46543a207468697320696e646976696475616c2068617360448201526d08185b1c9958591e481d9bdd195960921b606482015260840161066f565b60095442116109b85760405162461bcd60e51b815260206004820152602660248201527f476f7665726e65644e46543a207468697320766f7465206973206e6f742079656044820152653a1037b832b760d11b606482015260840161066f565b600a544210610a1c5760405162461bcd60e51b815260206004820152602a60248201527f476f7665726e65644e46543a207468697320766f7465206973206e6f74206f70604482015269656e20616e796d6f726560b01b606482015260840161066f565b6000610b1784848080601f016020809104026020016040519081016040528093929190818152602001838380828437600092019190915250610b1192507f9fa823d86348b9edce249274f703fc4b6026142167ffe72cd90a5ca74827fa979150610a8b905060208a018a612885565b610a9b60408b0160208c01612d3a565b610aa860408c018c6132ce565b604051610ab6929190612ee7565b604051908190038120610af6949392916020019384526001600160a01b039290921660208401526001600160801b03166040830152606082015260800190565b6040516020818303038152906040528051906020012061195a565b906119a8565b9050610b266020860186612885565b6001600160a01b03918216911614949350505050565b6001600160a01b038516331480610b585750610b588533610579565b610bbf5760405162461bcd60e51b815260206004820152603260248201527f455243313135353a207472616e736665722063616c6c6572206973206e6f74206044820152711bdddb995c881b9bdc88185c1c1c9bdd995960721b606482015260840161066f565b610bcc85858585856119c4565b5050505050565b60608151835114610c385760405162461bcd60e51b815260206004820152602960248201527f455243313135353a206163636f756e747320616e6420696473206c656e677468604482015268040dad2e6dac2e8c6d60bb1b606482015260840161066f565b600083516001600160401b03811115610c5357610c5361346d565b604051908082528060200260200182016040528015610c7c578160200160208202803683370190505b50905060005b8451811015610cf457610cc7858281518110610ca057610ca0613457565b6020026020010151858381518110610cba57610cba613457565b6020026020010151610607565b828281518110610cd957610cd9613457565b6020908102919091010152610ced81613410565b9050610c82565b509392505050565b6006546001600160a01b03163314610d265760405162461bcd60e51b815260040161066f90613210565b6000828152600c602090815260409182902060018101805460ff60a81b1916600160a81b60f887901c021790555491516001600160f81b03198416815284917f055ab1e6058a5c223b6a969d1acb726532ffbcf17e0c9c853961409d74260b6d91015b60405180910390a35050565b6006546001600160a01b03163314610dbf5760405162461bcd60e51b815260040161066f90613210565b610dc96000611b69565b565b6006546001600160a01b03163314610df55760405162461bcd60e51b815260040161066f90613210565b6001600160a01b03166000908152600760205260409020805460ff19166001179055565b60076000610e2a6020880188612885565b6001600160a01b0316815260208101919091526040016000205460ff1615610eb05760405162461bcd60e51b815260206004820152603360248201527f476f7665726e65644e46543a207468697320696e646976696475616c206973206044820152726e6f7420616c6c6f77656420746f20766f746560681b606482015260840161066f565b610ebb85858561081e565b610f075760405162461bcd60e51b815260206004820152601960248201527f476f7665726e65644e46543a20696e76616c696420766f746500000000000000604482015260640161066f565b6000805b8281101561112b57610f41610f236020890189612885565b858584818110610f3557610f35613457565b90506020020135610607565b156111195760019150600b6000610f5e60408a0160208b01612d3a565b6001600160801b03166001600160801b031681526020019081526020016000206040518060a00160405280896000016020810190610f9c9190612885565b6001600160a01b03168152602001868685818110610fbc57610fbc613457565b905060200201358152602001898060400190610fd891906132ce565b610fe19161334f565b6001600160801b031916815260200188888080601f01602080910402602001604051908101604052809392919081815260200183838082843760009201829052509385525050426020938401525083546001808201865594825290829020835160059092020180546001600160a01b0319166001600160a01b03909216919091178155828201519381019390935560408201516002840180546001600160801b03191660809290921c919091179055606082015180519293926110aa9260038501920190612692565b506080820151816004015550508383828181106110c9576110c9613457565b905060200201358760000160208101906110e39190612885565b6001600160a01b03167f9102be182515b5e047eb5e72c098572104d73b31b52b9766d92b745fcf4323b160405160405180910390a35b8061112381613410565b915050610f0b565b508015611197576008546001600160801b03166007600061114f60208a018a612885565b6001600160a01b03168152602081019190915260400160002080546001600160801b03929092166101000270ffffffffffffffffffffffffffffffff00199092169190911790555b505050505050565b6111aa338383611bbb565b5050565b6001600160801b0381166000908152600b60209081526040808320805482518185028101850190935280835260609492939192909184015b828210156112ec5760008481526020908190206040805160a0810182526005860290920180546001600160a01b03168352600181015493830193909352600283015460801b6001600160801b03191690820152600382018054919291606084019190611251906133af565b80601f016020809104026020016040519081016040528092919081815260200182805461127d906133af565b80156112ca5780601f1061129f576101008083540402835291602001916112ca565b820191906000526020600020905b8154815290600101906020018083116112ad57829003601f168201915b50505050508152602001600482015481525050815260200190600101906111e6565b505050509050919050565b6006546001600160a01b031633146113215760405162461bcd60e51b815260040161066f90613210565b6107396113366006546001600160a01b031690565b848484611c9c565b6008546001600160801b03908116908416116113d15760405162461bcd60e51b815260206004820152604660248201527f476f7665726e65644e46543a20746865206e657720766f7465206d757374206860448201527f6176652061206c6172676572206964207468616e207468652070726576696f7560648201526573206f6e657360d01b608482015260a40161066f565b8181116114385760405162461bcd60e51b815260206004820152602f60248201527f476f7665726e65644e46543a2074686520656e642063616e6e6f74206265206260448201526e19599bdc99481d1a19481cdd185c9d608a1b606482015260840161066f565b42811161149a5760405162461bcd60e51b815260206004820152602a60248201527f476f7665726e65644e46543a2074686520656e642063616e6e6f7420626520696044820152691b881d1a19481c185cdd60b21b606482015260840161066f565b600880546001600160801b0319166001600160801b039490941693909317909255600955600a55565b6040805160c081018252600080825260208201819052918101829052606081018290526080810182905260a08101919091526006546001600160a01b0316331461151f5760405162461bcd60e51b815260040161066f90613210565b506000818152600c6020908152604091829020825160c081018452815481526001909101546001600160801b0381169282019290925260ff600160801b830416928101929092526001600160e81b0319600160881b820460e81b1660608301526001600160f81b0319600160a01b820460f890811b82166080850152600160a81b90920490911b1660a08201525b919050565b6006546001600160a01b031633146115dc5760405162461bcd60e51b815260040161066f90613210565b6000828152600c6020526040902081906115f68282613534565b50508035827f4d06adcc78cbf1837adc1d90122283c59fc77d3eef2c4e3eb4a7730f7ae9e4b461162c6040850160208601612d3a565b61163c6060860160408701612e47565b61164c6080870160608801612bba565b61165c60a0880160808901612b9d565b61166c60c0890160a08a01612b9d565b604080516001600160801b03909616865260ff90941660208601526001600160e81b0319909216928401929092526001600160f81b0319918216606084015216608082015260a001610d89565b6001600160a01b0385163314806116d557506116d58533610579565b6117335760405162461bcd60e51b815260206004820152602960248201527f455243313135353a2063616c6c6572206973206e6f74206f776e6572206e6f7260448201526808185c1c1c9bdd995960ba1b606482015260840161066f565b610bcc8585858585611df7565b6006546001600160a01b0316331461176a5760405162461bcd60e51b815260040161066f90613210565b6001600160a01b0381166117cf5760405162461bcd60e51b815260206004820152602660248201527f4f776e61626c653a206e6577206f776e657220697320746865207a65726f206160448201526564647265737360d01b606482015260840161066f565b6117d881611b69565b50565b6001600160a01b0384166118015760405162461bcd60e51b815260040161066f9061328d565b33600061180d85611f33565b9050600061181a85611f33565b905061182b83600089858589611f7e565b60008681526001602090815260408083206001600160a01b038b1684529091528120805487929061185d908490613337565b909155505060408051878152602081018790526001600160a01b03808a1692600092918716917fc3d58168c5ae7397731d063d5bbf3d657854427343f4c083240f7aacaa2d0f62910160405180910390a46118bd83600089898989611fe2565b50505050505050565b6060600380546118d5906133af565b80601f0160208091040260200160405190810160405280929190818152602001828054611901906133af565b801561194e5780601f106119235761010080835404028352916020019161194e565b820191906000526020600020905b81548152906001019060200180831161193157829003601f168201915b50505050509050919050565b60006106ec61196761214d565b8360405161190160f01b6020820152602281018390526042810182905260009060620160405160208183030381529060405280519060200120905092915050565b60008060006119b78585612277565b91509150610cf4816122e7565b81518351146119e55760405162461bcd60e51b815260040161066f90613245565b6001600160a01b038416611a0b5760405162461bcd60e51b815260040161066f90613181565b33611a1a818787878787611f7e565b60005b8451811015611b03576000858281518110611a3a57611a3a613457565b602002602001015190506000858381518110611a5857611a58613457565b60209081029190910181015160008481526001835260408082206001600160a01b038e168352909352919091205490915081811015611aa95760405162461bcd60e51b815260040161066f906131c6565b60008381526001602090815260408083206001600160a01b038e8116855292528083208585039055908b16825281208054849290611ae8908490613337565b9250508190555050505080611afc90613410565b9050611a1d565b50846001600160a01b0316866001600160a01b0316826001600160a01b03167f4a39dc06d4c0dbc64b70af90fd698a233a518aa5d07e595d983b8c0526c8f7fb8787604051611b53929190613101565b60405180910390a46111978187878787876124a2565b600680546001600160a01b038381166001600160a01b0319831681179093556040519116919082907f8be0079c531659141344cd1fd0a4f28419497f9722a3daafe3b4186f6b6457e090600090a35050565b816001600160a01b0316836001600160a01b03161415611c2f5760405162461bcd60e51b815260206004820152602960248201527f455243313135353a2073657474696e6720617070726f76616c20737461747573604482015268103337b91039b2b63360b91b606482015260840161066f565b6001600160a01b03838116600081815260026020908152604080832094871680845294825291829020805460ff191686151590811790915591519182527f17307eab39ab6107e8899845ad3d59bd9653f200f220920489ca2b5937696c31910160405180910390a3505050565b6001600160a01b038416611cc25760405162461bcd60e51b815260040161066f9061328d565b8151835114611ce35760405162461bcd60e51b815260040161066f90613245565b33611cf381600087878787611f7e565b60005b8451811015611d8f57838181518110611d1157611d11613457565b602002602001015160016000878481518110611d2f57611d2f613457565b602002602001015181526020019081526020016000206000886001600160a01b03166001600160a01b031681526020019081526020016000206000828254611d779190613337565b90915550819050611d8781613410565b915050611cf6565b50846001600160a01b031660006001600160a01b0316826001600160a01b03167f4a39dc06d4c0dbc64b70af90fd698a233a518aa5d07e595d983b8c0526c8f7fb8787604051611de0929190613101565b60405180910390a4610bcc816000878787876124a2565b6001600160a01b038416611e1d5760405162461bcd60e51b815260040161066f90613181565b336000611e2985611f33565b90506000611e3685611f33565b9050611e46838989858589611f7e565b60008681526001602090815260408083206001600160a01b038c16845290915290205485811015611e895760405162461bcd60e51b815260040161066f906131c6565b60008781526001602090815260408083206001600160a01b038d8116855292528083208985039055908a16825281208054889290611ec8908490613337565b909155505060408051888152602081018890526001600160a01b03808b16928c821692918816917fc3d58168c5ae7397731d063d5bbf3d657854427343f4c083240f7aacaa2d0f62910160405180910390a4611f28848a8a8a8a8a611fe2565b505050505050505050565b60408051600180825281830190925260609160009190602080830190803683370190505090508281600081518110611f6d57611f6d613457565b602090810291909101015292915050565b60005460ff16156111975760405162461bcd60e51b815260206004820152602860248201527f476f7665726e65644e46543a20746f6b656e207472616e73666572207768696c60448201526719481c185d5cd95960c21b606482015260840161066f565b6001600160a01b0384163b156111975760405163f23a6e6160e01b81526001600160a01b0385169063f23a6e61906120269089908990889088908890600401612ffc565b602060405180830381600087803b15801561204057600080fd5b505af1925050508015612070575060408051601f3d908101601f1916820190925261206d91810190612bf4565b60015b61211d5761207c613490565b806308c379a014156120b657506120916134ab565b8061209c57506120b8565b8060405162461bcd60e51b815260040161066f9190613126565b505b60405162461bcd60e51b815260206004820152603460248201527f455243313135353a207472616e7366657220746f206e6f6e20455243313135356044820152732932b1b2b4bb32b91034b6b83632b6b2b73a32b960611b606482015260840161066f565b6001600160e01b0319811663f23a6e6160e01b146118bd5760405162461bcd60e51b815260040161066f90613139565b6000306001600160a01b037f0000000000000000000000000000000000000000000000000000000000000000161480156121a657507f000000000000000000000000000000000000000000000000000000000000000046145b156121d057507f000000000000000000000000000000000000000000000000000000000000000090565b50604080517f00000000000000000000000000000000000000000000000000000000000000006020808301919091527f0000000000000000000000000000000000000000000000000000000000000000828401527f000000000000000000000000000000000000000000000000000000000000000060608301524660808301523060a0808401919091528351808403909101815260c0909201909252805191012090565b90565b6000808251604114156122ae5760208301516040840151606085015160001a6122a28782858561256c565b945094505050506122e0565b8251604014156122d857602083015160408401516122cd868383612659565b9350935050506122e0565b506000905060025b9250929050565b60008160048111156122fb576122fb613441565b14156123045750565b600181600481111561231857612318613441565b14156123665760405162461bcd60e51b815260206004820152601860248201527f45434453413a20696e76616c6964207369676e61747572650000000000000000604482015260640161066f565b600281600481111561237a5761237a613441565b14156123c85760405162461bcd60e51b815260206004820152601f60248201527f45434453413a20696e76616c6964207369676e6174757265206c656e67746800604482015260640161066f565b60038160048111156123dc576123dc613441565b14156124355760405162461bcd60e51b815260206004820152602260248201527f45434453413a20696e76616c6964207369676e6174757265202773272076616c604482015261756560f01b606482015260840161066f565b600481600481111561244957612449613441565b14156117d85760405162461bcd60e51b815260206004820152602260248201527f45434453413a20696e76616c6964207369676e6174757265202776272076616c604482015261756560f01b606482015260840161066f565b6001600160a01b0384163b156111975760405163bc197c8160e01b81526001600160a01b0385169063bc197c81906124e69089908990889088908890600401612f9e565b602060405180830381600087803b15801561250057600080fd5b505af1925050508015612530575060408051601f3d908101601f1916820190925261252d91810190612bf4565b60015b61253c5761207c613490565b6001600160e01b0319811663bc197c8160e01b146118bd5760405162461bcd60e51b815260040161066f90613139565b6000807f7fffffffffffffffffffffffffffffff5d576e7357a4501ddfe92f46681b20a08311156125a35750600090506003612650565b8460ff16601b141580156125bb57508460ff16601c14155b156125cc5750600090506004612650565b6040805160008082526020820180845289905260ff881692820192909252606081018690526080810185905260019060a0016020604051602081039080840390855afa158015612620573d6000803e3d6000fd5b5050604051601f1901519150506001600160a01b03811661264957600060019250925050612650565b9150600090505b94509492505050565b6000806001600160ff1b0383168161267660ff86901c601b613337565b90506126848782888561256c565b935093505050935093915050565b82805461269e906133af565b90600052602060002090601f0160209004810192826126c05760008555612706565b82601f106126d957805160ff1916838001178555612706565b82800160010185558215612706579182015b828111156127065782518255916020019190600101906126eb565b50612712929150612716565b5090565b5b808211156127125760008155600101612717565b80356001600160a01b03811681146115ad57600080fd5b600082601f83011261275357600080fd5b8135602061276082613314565b60405161276d82826133e4565b8381528281019150858301600585901b8701840188101561278d57600080fd5b60005b858110156127ac57813584529284019290840190600101612790565b5090979650505050505050565b60008083601f8401126127cb57600080fd5b5081356001600160401b038111156127e257600080fd5b6020830191508360208285010111156122e057600080fd5b600082601f83011261280b57600080fd5b81356001600160401b038111156128245761282461346d565b60405161283b601f8301601f1916602001826133e4565b81815284602083860101111561285057600080fd5b816020850160208301376000918101602001919091529392505050565b60006060828403121561287f57600080fd5b50919050565b60006020828403121561289757600080fd5b6108178261272b565b600080604083850312156128b357600080fd5b6128bc8361272b565b91506128ca6020840161272b565b90509250929050565b600080600080600060a086880312156128eb57600080fd5b6128f48661272b565b94506129026020870161272b565b935060408601356001600160401b038082111561291e57600080fd5b61292a89838a01612742565b9450606088013591508082111561294057600080fd5b61294c89838a01612742565b9350608088013591508082111561296257600080fd5b5061296f888289016127fa565b9150509295509295909350565b600080600080600060a0868803121561299457600080fd5b61299d8661272b565b94506129ab6020870161272b565b9350604086013592506060860135915060808601356001600160401b038111156129d457600080fd5b61296f888289016127fa565b600080604083850312156129f357600080fd5b6129fc8361272b565b915060208301358015158114612a1157600080fd5b809150509250929050565b60008060408385031215612a2f57600080fd5b612a388361272b565b946020939093013593505050565b60008060408385031215612a5957600080fd5b82356001600160401b0380821115612a7057600080fd5b818501915085601f830112612a8457600080fd5b81356020612a9182613314565b604051612a9e82826133e4565b8381528281019150858301600585901b870184018b1015612abe57600080fd5b600096505b84871015612ae857612ad48161272b565b835260019690960195918301918301612ac3565b5096505086013592505080821115612aff57600080fd5b50612b0c85828601612742565b9150509250929050565b600080600060608486031215612b2b57600080fd5b83356001600160401b0380821115612b4257600080fd5b612b4e87838801612742565b94506020860135915080821115612b6457600080fd5b612b7087838801612742565b93506040860135915080821115612b8657600080fd5b50612b93868287016127fa565b9150509250925092565b600060208284031215612baf57600080fd5b813561081781613629565b600060208284031215612bcc57600080fd5b81356108178161363f565b600060208284031215612be957600080fd5b813561081781613655565b600060208284031215612c0657600080fd5b815161081781613655565b600080600060408486031215612c2657600080fd5b83356001600160401b0380821115612c3d57600080fd5b612c498783880161286d565b94506020860135915080821115612c5f57600080fd5b50612c6c868287016127b9565b9497909650939450505050565b600080600080600060608688031215612c9157600080fd5b85356001600160401b0380821115612ca857600080fd5b612cb489838a0161286d565b96506020880135915080821115612cca57600080fd5b612cd689838a016127b9565b90965094506040880135915080821115612cef57600080fd5b818801915088601f830112612d0357600080fd5b813581811115612d1257600080fd5b8960208260051b8501011115612d2757600080fd5b9699959850939650602001949392505050565b600060208284031215612d4c57600080fd5b81356108178161366b565b600080600060608486031215612d6c57600080fd5b8335612d778161366b565b95602085013595506040909401359392505050565b600060208284031215612d9e57600080fd5b5035919050565b60008060408385031215612db857600080fd5b823591506020830135612a1181613629565b60008082840360e0811215612dde57600080fd5b8335925060c0601f1982011215612df457600080fd5b506020830190509250929050565b600080600060608486031215612e1757600080fd5b833592506020840135915060408401356001600160401b03811115612e3b57600080fd5b612b93868287016127fa565b600060208284031215612e5957600080fd5b813561081781613680565b600081518084526020808501945080840160005b83811015612e9457815187529582019590820190600101612e78565b509495945050505050565b60008151808452612eb781602086016020860161337f565b601f01601f19169290920160200192915050565b60008151612edd81856020860161337f565b9290920192915050565b8183823760009101908152919050565b600080845481600182811c915080831680612f1357607f831692505b6020808410821415612f3357634e487b7160e01b86526022600452602486fd5b818015612f475760018114612f5857612f85565b60ff19861689528489019650612f85565b60008b81526020902060005b86811015612f7d5781548b820152908501908301612f64565b505084890196505b505050505050612f958185612ecb565b95945050505050565b6001600160a01b0386811682528516602082015260a060408201819052600090612fca90830186612e64565b8281036060840152612fdc8186612e64565b90508281036080840152612ff08185612e9f565b98975050505050505050565b6001600160a01b03868116825285166020820152604081018490526060810183905260a06080820181905260009061303690830184612e9f565b979650505050505050565b60006020808301818452808551808352604092508286019150828160051b87010184880160005b838110156130e057888303603f19018552815180516001600160a01b031684528781015188850152868101516001600160801b0319168785015260608082015160a082870181905291906130be83880182612e9f565b6080948501519790940196909652505094870194925090860190600101613068565b509098975050505050505050565b6020815260006108176020830184612e64565b6040815260006131146040830185612e64565b8281036020840152612f958185612e64565b6020815260006108176020830184612e9f565b60208082526028908201527f455243313135353a204552433131353552656365697665722072656a656374656040820152676420746f6b656e7360c01b606082015260800190565b60208082526025908201527f455243313135353a207472616e7366657220746f20746865207a65726f206164604082015264647265737360d81b606082015260800190565b6020808252602a908201527f455243313135353a20696e73756666696369656e742062616c616e636520666f60408201526939103a3930b739b332b960b11b606082015260800190565b6020808252818101527f4f776e61626c653a2063616c6c6572206973206e6f7420746865206f776e6572604082015260600190565b60208082526028908201527f455243313135353a2069647320616e6420616d6f756e7473206c656e677468206040820152670dad2e6dac2e8c6d60c31b606082015260800190565b60208082526021908201527f455243313135353a206d696e7420746f20746865207a65726f206164647265736040820152607360f81b606082015260800190565b6000808335601e198436030181126132e557600080fd5b8301803591506001600160401b038211156132ff57600080fd5b6020019150368190038213156122e057600080fd5b60006001600160401b0382111561332d5761332d61346d565b5060051b60200190565b6000821982111561334a5761334a61342b565b500190565b6001600160801b031981358181169160108510156133775780818660100360031b1b83161692505b505092915050565b60005b8381101561339a578181015183820152602001613382565b838111156133a9576000848401525b50505050565b600181811c908216806133c357607f821691505b6020821081141561287f57634e487b7160e01b600052602260045260246000fd5b601f8201601f191681016001600160401b03811182821017156134095761340961346d565b6040525050565b60006000198214156134245761342461342b565b5060010190565b634e487b7160e01b600052601160045260246000fd5b634e487b7160e01b600052602160045260246000fd5b634e487b7160e01b600052603260045260246000fd5b634e487b7160e01b600052604160045260246000fd5b600081356106ec81613629565b600060033d11156122745760046000803e5060005160e01c90565b600060443d10156134b95790565b6040516003193d81016004833e81513d6001600160401b0381602484011181841117156134e857505050505090565b82850191508151818111156135005750505050505090565b843d870101602082850101111561351a5750505050505090565b613529602082860101876133e4565b509095945050505050565b8135815560018101602083013561354a8161366b565b6001600160801b03811690508154816001600160801b03198216178355604085013561357581613680565b60ff60801b60809190911b1670ffffffffffffffffffffffffffffffffff19821683178117845560608601356135aa8161363f565b6001600160a01b0319929092169092179190911760609190911c62ffffff60881b161781556135fc6135de60808501613483565b82805460ff60a01b191660589290921c60ff60a01b16919091179055565b61073961360b60a08501613483565b82805460ff60a81b191660509290921c60ff60a81b16919091179055565b6001600160f81b0319811681146117d857600080fd5b6001600160e81b0319811681146117d857600080fd5b6001600160e01b0319811681146117d857600080fd5b6001600160801b03811681146117d857600080fd5b60ff811681146117d857600080fdfea26469706673582212201dfc1782f8db8cbabaa323c025fd7299421233f816230487bd0c85b6fa25d50d64736f6c63430008070033",
			"opcodes": "PUSH2 0x160 PUSH1 0x40 DUP2 SWAP1 MSTORE PUSH1 0x0 PUSH2 0x140 DUP2 SWAP1 MSTORE PUSH3 0x1D SWAP2 PUSH1 0x4 SWAP2 PUSH3 0x1D2 JUMP JUMPDEST POP CALLVALUE DUP1 ISZERO PUSH3 0x2B JUMPI PUSH1 0x0 DUP1 REVERT JUMPDEST POP PUSH1 0x40 MLOAD PUSH3 0x3ABF CODESIZE SUB DUP1 PUSH3 0x3ABF DUP4 CODECOPY DUP2 ADD PUSH1 0x40 DUP2 SWAP1 MSTORE PUSH3 0x4E SWAP2 PUSH3 0x278 JUMP JUMPDEST PUSH1 0x40 DUP1 MLOAD DUP1 DUP3 ADD DUP3 MSTORE PUSH1 0xB DUP2 MSTORE PUSH11 0x11DBDD995C9B9959139195 PUSH1 0xAA SHL PUSH1 0x20 DUP1 DUP4 ADD SWAP2 DUP3 MSTORE DUP4 MLOAD DUP1 DUP6 ADD DUP6 MSTORE PUSH1 0x5 DUP2 MSTORE PUSH5 0x312E302E3 PUSH1 0xDC SHL SWAP1 DUP3 ADD MSTORE SWAP2 MLOAD SWAP1 KECCAK256 PUSH1 0xE0 DUP2 SWAP1 MSTORE PUSH32 0x6C015BD22B4C69690933C1058878EBDFEF31F9AAAE40BBE86D8A09FE1B2972C PUSH2 0x100 DUP2 SWAP1 MSTORE CHAINID PUSH1 0xA0 DUP2 DUP2 MSTORE DUP6 MLOAD PUSH32 0x8B73C3C69BB8FE3D512ECC4CF759CC79239F7B179B0FFACAA9A75D522B39400F DUP2 DUP8 ADD DUP2 SWAP1 MSTORE DUP2 DUP9 ADD SWAP6 SWAP1 SWAP6 MSTORE PUSH1 0x60 DUP2 DUP2 ADD SWAP5 SWAP1 SWAP5 MSTORE PUSH1 0x80 DUP1 DUP3 ADD SWAP4 SWAP1 SWAP4 MSTORE ADDRESS DUP2 DUP4 ADD DUP2 SWAP1 MSTORE DUP8 MLOAD DUP1 DUP4 SUB SWAP1 SWAP4 ADD DUP4 MSTORE PUSH1 0xC0 SWAP2 DUP3 ADD SWAP1 SWAP8 MSTORE DUP2 MLOAD SWAP2 SWAP1 SWAP6 ADD KECCAK256 SWAP1 MSTORE SWAP3 SWAP1 SWAP3 SHL SWAP1 MSTORE PUSH2 0x120 MSTORE PUSH1 0x0 DUP1 SLOAD PUSH1 0xFF NOT AND SWAP1 SSTORE DUP1 PUSH3 0x144 DUP2 PUSH3 0x167 JUMP JUMPDEST POP PUSH3 0x150 CALLER PUSH3 0x180 JUMP JUMPDEST POP PUSH1 0x8 DUP1 SLOAD PUSH1 0x1 PUSH1 0x1 PUSH1 0x80 SHL SUB NOT AND SWAP1 SSTORE PUSH3 0x3A7 JUMP JUMPDEST DUP1 MLOAD PUSH3 0x17C SWAP1 PUSH1 0x3 SWAP1 PUSH1 0x20 DUP5 ADD SWAP1 PUSH3 0x1D2 JUMP JUMPDEST POP POP JUMP JUMPDEST PUSH1 0x6 DUP1 SLOAD PUSH1 0x1 PUSH1 0x1 PUSH1 0xA0 SHL SUB DUP4 DUP2 AND PUSH1 0x1 PUSH1 0x1 PUSH1 0xA0 SHL SUB NOT DUP4 AND DUP2 OR SWAP1 SWAP4 SSTORE PUSH1 0x40 MLOAD SWAP2 AND SWAP2 SWAP1 DUP3 SWAP1 PUSH32 0x8BE0079C531659141344CD1FD0A4F28419497F9722A3DAAFE3B4186F6B6457E0 SWAP1 PUSH1 0x0 SWAP1 LOG3 POP POP JUMP JUMPDEST DUP3 DUP1 SLOAD PUSH3 0x1E0 SWAP1 PUSH3 0x354 JUMP JUMPDEST SWAP1 PUSH1 0x0 MSTORE PUSH1 0x20 PUSH1 0x0 KECCAK256 SWAP1 PUSH1 0x1F ADD PUSH1 0x20 SWAP1 DIV DUP2 ADD SWAP3 DUP3 PUSH3 0x204 JUMPI PUSH1 0x0 DUP6 SSTORE PUSH3 0x24F JUMP JUMPDEST DUP3 PUSH1 0x1F LT PUSH3 0x21F JUMPI DUP1 MLOAD PUSH1 0xFF NOT AND DUP4 DUP1 ADD OR DUP6 SSTORE PUSH3 0x24F JUMP JUMPDEST DUP3 DUP1 ADD PUSH1 0x1 ADD DUP6 SSTORE DUP3 ISZERO PUSH3 0x24F JUMPI SWAP2 DUP3 ADD JUMPDEST DUP3 DUP2 GT ISZERO PUSH3 0x24F JUMPI DUP3 MLOAD DUP3 SSTORE SWAP2 PUSH1 0x20 ADD SWAP2 SWAP1 PUSH1 0x1 ADD SWAP1 PUSH3 0x232 JUMP JUMPDEST POP PUSH3 0x25D SWAP3 SWAP2 POP PUSH3 0x261 JUMP JUMPDEST POP SWAP1 JUMP JUMPDEST JUMPDEST DUP1 DUP3 GT ISZERO PUSH3 0x25D JUMPI PUSH1 0x0 DUP2 SSTORE PUSH1 0x1 ADD PUSH3 0x262 JUMP JUMPDEST PUSH1 0x0 PUSH1 0x20 DUP1 DUP4 DUP6 SUB SLT ISZERO PUSH3 0x28C JUMPI PUSH1 0x0 DUP1 REVERT JUMPDEST DUP3 MLOAD PUSH1 0x1 PUSH1 0x1 PUSH1 0x40 SHL SUB DUP1 DUP3 GT ISZERO PUSH3 0x2A4 JUMPI PUSH1 0x0 DUP1 REVERT JUMPDEST DUP2 DUP6 ADD SWAP2 POP DUP6 PUSH1 0x1F DUP4 ADD SLT PUSH3 0x2B9 JUMPI PUSH1 0x0 DUP1 REVERT JUMPDEST DUP2 MLOAD DUP2 DUP2 GT ISZERO PUSH3 0x2CE JUMPI PUSH3 0x2CE PUSH3 0x391 JUMP JUMPDEST PUSH1 0x40 MLOAD PUSH1 0x1F DUP3 ADD PUSH1 0x1F NOT SWAP1 DUP2 AND PUSH1 0x3F ADD AND DUP2 ADD SWAP1 DUP4 DUP3 GT DUP2 DUP4 LT OR ISZERO PUSH3 0x2F9 JUMPI PUSH3 0x2F9 PUSH3 0x391 JUMP JUMPDEST DUP2 PUSH1 0x40 MSTORE DUP3 DUP2 MSTORE DUP9 DUP7 DUP5 DUP8 ADD ADD GT ISZERO PUSH3 0x312 JUMPI PUSH1 0x0 DUP1 REVERT JUMPDEST PUSH1 0x0 SWAP4 POP JUMPDEST DUP3 DUP5 LT ISZERO PUSH3 0x336 JUMPI DUP5 DUP5 ADD DUP7 ADD MLOAD DUP2 DUP6 ADD DUP8 ADD MSTORE SWAP3 DUP6 ADD SWAP3 PUSH3 0x317 JUMP JUMPDEST DUP3 DUP5 GT ISZERO PUSH3 0x348 JUMPI PUSH1 0x0 DUP7 DUP5 DUP4 ADD ADD MSTORE JUMPDEST SWAP9 SWAP8 POP POP POP POP POP POP POP POP JUMP JUMPDEST PUSH1 0x1 DUP2 DUP2 SHR SWAP1 DUP3 AND DUP1 PUSH3 0x369 JUMPI PUSH1 0x7F DUP3 AND SWAP2 POP JUMPDEST PUSH1 0x20 DUP3 LT DUP2 EQ ISZERO PUSH3 0x38B JUMPI PUSH4 0x4E487B71 PUSH1 0xE0 SHL PUSH1 0x0 MSTORE PUSH1 0x22 PUSH1 0x4 MSTORE PUSH1 0x24 PUSH1 0x0 REVERT JUMPDEST POP SWAP2 SWAP1 POP JUMP JUMPDEST PUSH4 0x4E487B71 PUSH1 0xE0 SHL PUSH1 0x0 MSTORE PUSH1 0x41 PUSH1 0x4 MSTORE PUSH1 0x24 PUSH1 0x0 REVERT JUMPDEST PUSH1 0x80 MLOAD PUSH1 0xA0 MLOAD PUSH1 0xC0 MLOAD PUSH1 0x60 SHR PUSH1 0xE0 MLOAD PUSH2 0x100 MLOAD PUSH2 0x120 MLOAD PUSH2 0x36C5 PUSH3 0x3FA PUSH1 0x0 CODECOPY PUSH1 0x0 PUSH2 0x21D7 ADD MSTORE PUSH1 0x0 PUSH2 0x2226 ADD MSTORE PUSH1 0x0 PUSH2 0x2201 ADD MSTORE PUSH1 0x0 PUSH2 0x215A ADD MSTORE PUSH1 0x0 PUSH2 0x2184 ADD MSTORE PUSH1 0x0 PUSH2 0x21AE ADD MSTORE PUSH2 0x36C5 PUSH1 0x0 RETURN INVALID PUSH1 0x80 PUSH1 0x40 MSTORE PUSH1 0x4 CALLDATASIZE LT PUSH2 0x169 JUMPI PUSH1 0x0 CALLDATALOAD PUSH1 0xE0 SHR DUP1 PUSH4 0x74A8F103 GT PUSH2 0xD1 JUMPI DUP1 PUSH4 0xBB4351E8 GT PUSH2 0x8A JUMPI DUP1 PUSH4 0xE985E9C5 GT PUSH2 0x64 JUMPI DUP1 PUSH4 0xE985E9C5 EQ PUSH2 0x55E JUMPI DUP1 PUSH4 0xECD1617A EQ PUSH2 0x5A7 JUMPI DUP1 PUSH4 0xF242432A EQ PUSH2 0x5C7 JUMPI DUP1 PUSH4 0xF2FDE38B EQ PUSH2 0x5E7 JUMPI PUSH1 0x0 DUP1 REVERT JUMPDEST DUP1 PUSH4 0xBB4351E8 EQ PUSH2 0x491 JUMPI DUP1 PUSH4 0xD2DDF529 EQ PUSH2 0x4B1 JUMPI DUP1 PUSH4 0xD8F6D596 EQ PUSH2 0x4D1 JUMPI PUSH1 0x0 DUP1 REVERT JUMPDEST DUP1 PUSH4 0x74A8F103 EQ PUSH2 0x3A2 JUMPI DUP1 PUSH4 0x8DA5CB5B EQ PUSH2 0x3C2 JUMPI DUP1 PUSH4 0x9FB049AA EQ PUSH2 0x3EA JUMPI DUP1 PUSH4 0xA22CB465 EQ PUSH2 0x40A JUMPI DUP1 PUSH4 0xB98F25D3 EQ PUSH2 0x42A JUMPI DUP1 PUSH4 0xBABCC539 EQ PUSH2 0x457 JUMPI PUSH1 0x0 DUP1 REVERT JUMPDEST DUP1 PUSH4 0x14CE6538 GT PUSH2 0x123 JUMPI DUP1 PUSH4 0x14CE6538 EQ PUSH2 0x2E8 JUMPI DUP1 PUSH4 0x2EB2C2D6 EQ PUSH2 0x308 JUMPI DUP1 PUSH4 0x4E1273F4 EQ PUSH2 0x328 JUMPI DUP1 PUSH4 0x4EC5D27E EQ PUSH2 0x355 JUMPI DUP1 PUSH4 0x5C975ABB EQ PUSH2 0x375 JUMPI DUP1 PUSH4 0x715018A6 EQ PUSH2 0x38D JUMPI PUSH1 0x0 DUP1 REVERT JUMPDEST DUP1 PUSH3 0xFDD58E EQ PUSH2 0x1AD JUMPI DUP1 PUSH4 0x1FFC9A7 EQ PUSH2 0x1E0 JUMPI DUP1 PUSH4 0x242F351 EQ PUSH2 0x210 JUMPI DUP1 PUSH4 0x8DC9F42 EQ PUSH2 0x24B JUMPI DUP1 PUSH4 0x9EEF43E EQ PUSH2 0x26D JUMPI DUP1 PUSH4 0xE89341C EQ PUSH2 0x2BB JUMPI PUSH1 0x0 DUP1 REVERT JUMPDEST CALLDATASIZE PUSH2 0x1A8 JUMPI PUSH1 0x40 DUP1 MLOAD CALLER DUP2 MSTORE CALLVALUE PUSH1 0x20 DUP3 ADD MSTORE PUSH32 0x52A6CDF67C40CE333B3D846E4E143DB87F71DD7935612A4CAFCF6BA76047CA1F SWAP2 ADD PUSH1 0x40 MLOAD DUP1 SWAP2 SUB SWAP1 LOG1 STOP JUMPDEST PUSH1 0x0 DUP1 REVERT JUMPDEST CALLVALUE DUP1 ISZERO PUSH2 0x1B9 JUMPI PUSH1 0x0 DUP1 REVERT JUMPDEST POP PUSH2 0x1CD PUSH2 0x1C8 CALLDATASIZE PUSH1 0x4 PUSH2 0x2A1C JUMP JUMPDEST PUSH2 0x607 JUMP JUMPDEST PUSH1 0x40 MLOAD SWAP1 DUP2 MSTORE PUSH1 0x20 ADD JUMPDEST PUSH1 0x40 MLOAD DUP1 SWAP2 SUB SWAP1 RETURN JUMPDEST CALLVALUE DUP1 ISZERO PUSH2 0x1EC JUMPI PUSH1 0x0 DUP1 REVERT JUMPDEST POP PUSH2 0x200 PUSH2 0x1FB CALLDATASIZE PUSH1 0x4 PUSH2 0x2BD7 JUMP JUMPDEST PUSH2 0x6A0 JUMP JUMPDEST PUSH1 0x40 MLOAD SWAP1 ISZERO ISZERO DUP2 MSTORE PUSH1 0x20 ADD PUSH2 0x1D7 JUMP JUMPDEST CALLVALUE DUP1 ISZERO PUSH2 0x21C JUMPI PUSH1 0x0 DUP1 REVERT JUMPDEST POP PUSH1 0x8 SLOAD PUSH1 0x9 SLOAD PUSH1 0xA SLOAD PUSH1 0x40 DUP1 MLOAD PUSH1 0x1 PUSH1 0x1 PUSH1 0x80 SHL SUB SWAP1 SWAP5 AND DUP5 MSTORE PUSH1 0x20 DUP5 ADD SWAP3 SWAP1 SWAP3 MSTORE SWAP1 DUP3 ADD MSTORE PUSH1 0x60 ADD PUSH2 0x1D7 JUMP JUMPDEST CALLVALUE DUP1 ISZERO PUSH2 0x257 JUMPI PUSH1 0x0 DUP1 REVERT JUMPDEST POP PUSH2 0x26B PUSH2 0x266 CALLDATASIZE PUSH1 0x4 PUSH2 0x2E02 JUMP JUMPDEST PUSH2 0x6F2 JUMP JUMPDEST STOP JUMPDEST CALLVALUE DUP1 ISZERO PUSH2 0x279 JUMPI PUSH1 0x0 DUP1 REVERT JUMPDEST POP PUSH2 0x200 PUSH2 0x288 CALLDATASIZE PUSH1 0x4 PUSH2 0x2885 JUMP JUMPDEST PUSH1 0x8 SLOAD PUSH1 0x1 PUSH1 0x1 PUSH1 0xA0 SHL SUB SWAP1 SWAP2 AND PUSH1 0x0 SWAP1 DUP2 MSTORE PUSH1 0x7 PUSH1 0x20 MSTORE PUSH1 0x40 SWAP1 KECCAK256 SLOAD PUSH2 0x100 SWAP1 DIV PUSH1 0x1 PUSH1 0x1 PUSH1 0x80 SHL SUB SWAP1 DUP2 AND SWAP2 AND EQ SWAP1 JUMP JUMPDEST CALLVALUE DUP1 ISZERO PUSH2 0x2C7 JUMPI PUSH1 0x0 DUP1 REVERT JUMPDEST POP PUSH2 0x2DB PUSH2 0x2D6 CALLDATASIZE PUSH1 0x4 PUSH2 0x2D8C JUMP JUMPDEST PUSH2 0x73E JUMP JUMPDEST PUSH1 0x40 MLOAD PUSH2 0x1D7 SWAP2 SWAP1 PUSH2 0x3126 JUMP JUMPDEST CALLVALUE DUP1 ISZERO PUSH2 0x2F4 JUMPI PUSH1 0x0 DUP1 REVERT JUMPDEST POP PUSH2 0x200 PUSH2 0x303 CALLDATASIZE PUSH1 0x4 PUSH2 0x2C11 JUMP JUMPDEST PUSH2 0x81E JUMP JUMPDEST CALLVALUE DUP1 ISZERO PUSH2 0x314 JUMPI PUSH1 0x0 DUP1 REVERT JUMPDEST POP PUSH2 0x26B PUSH2 0x323 CALLDATASIZE PUSH1 0x4 PUSH2 0x28D3 JUMP JUMPDEST PUSH2 0xB3C JUMP JUMPDEST CALLVALUE DUP1 ISZERO PUSH2 0x334 JUMPI PUSH1 0x0 DUP1 REVERT JUMPDEST POP PUSH2 0x348 PUSH2 0x343 CALLDATASIZE PUSH1 0x4 PUSH2 0x2A46 JUMP JUMPDEST PUSH2 0xBD3 JUMP JUMPDEST PUSH1 0x40 MLOAD PUSH2 0x1D7 SWAP2 SWAP1 PUSH2 0x30EE JUMP JUMPDEST CALLVALUE DUP1 ISZERO PUSH2 0x361 JUMPI PUSH1 0x0 DUP1 REVERT JUMPDEST POP PUSH2 0x26B PUSH2 0x370 CALLDATASIZE PUSH1 0x4 PUSH2 0x2DA5 JUMP JUMPDEST PUSH2 0xCFC JUMP JUMPDEST CALLVALUE DUP1 ISZERO PUSH2 0x381 JUMPI PUSH1 0x0 DUP1 REVERT JUMPDEST POP PUSH1 0x0 SLOAD PUSH1 0xFF AND PUSH2 0x200 JUMP JUMPDEST CALLVALUE DUP1 ISZERO PUSH2 0x399 JUMPI PUSH1 0x0 DUP1 REVERT JUMPDEST POP PUSH2 0x26B PUSH2 0xD95 JUMP JUMPDEST CALLVALUE DUP1 ISZERO PUSH2 0x3AE JUMPI PUSH1 0x0 DUP1 REVERT JUMPDEST POP PUSH2 0x26B PUSH2 0x3BD CALLDATASIZE PUSH1 0x4 PUSH2 0x2885 JUMP JUMPDEST PUSH2 0xDCB JUMP JUMPDEST CALLVALUE DUP1 ISZERO PUSH2 0x3CE JUMPI PUSH1 0x0 DUP1 REVERT JUMPDEST POP PUSH1 0x6 SLOAD PUSH1 0x40 MLOAD PUSH1 0x1 PUSH1 0x1 PUSH1 0xA0 SHL SUB SWAP1 SWAP2 AND DUP2 MSTORE PUSH1 0x20 ADD PUSH2 0x1D7 JUMP JUMPDEST CALLVALUE DUP1 ISZERO PUSH2 0x3F6 JUMPI PUSH1 0x0 DUP1 REVERT JUMPDEST POP PUSH2 0x26B PUSH2 0x405 CALLDATASIZE PUSH1 0x4 PUSH2 0x2C79 JUMP JUMPDEST PUSH2 0xE19 JUMP JUMPDEST CALLVALUE DUP1 ISZERO PUSH2 0x416 JUMPI PUSH1 0x0 DUP1 REVERT JUMPDEST POP PUSH2 0x26B PUSH2 0x425 CALLDATASIZE PUSH1 0x4 PUSH2 0x29E0 JUMP JUMPDEST PUSH2 0x119F JUMP JUMPDEST CALLVALUE DUP1 ISZERO PUSH2 0x436 JUMPI PUSH1 0x0 DUP1 REVERT JUMPDEST POP PUSH2 0x44A PUSH2 0x445 CALLDATASIZE PUSH1 0x4 PUSH2 0x2D3A JUMP JUMPDEST PUSH2 0x11AE JUMP JUMPDEST PUSH1 0x40 MLOAD PUSH2 0x1D7 SWAP2 SWAP1 PUSH2 0x3041 JUMP JUMPDEST CALLVALUE DUP1 ISZERO PUSH2 0x463 JUMPI PUSH1 0x0 DUP1 REVERT JUMPDEST POP PUSH2 0x200 PUSH2 0x472 CALLDATASIZE PUSH1 0x4 PUSH2 0x2885 JUMP JUMPDEST PUSH1 0x1 PUSH1 0x1 PUSH1 0xA0 SHL SUB AND PUSH1 0x0 SWAP1 DUP2 MSTORE PUSH1 0x7 PUSH1 0x20 MSTORE PUSH1 0x40 SWAP1 KECCAK256 SLOAD PUSH1 0xFF AND ISZERO SWAP1 JUMP JUMPDEST CALLVALUE DUP1 ISZERO PUSH2 0x49D JUMPI PUSH1 0x0 DUP1 REVERT JUMPDEST POP PUSH2 0x26B PUSH2 0x4AC CALLDATASIZE PUSH1 0x4 PUSH2 0x2B16 JUMP JUMPDEST PUSH2 0x12F7 JUMP JUMPDEST CALLVALUE DUP1 ISZERO PUSH2 0x4BD JUMPI PUSH1 0x0 DUP1 REVERT JUMPDEST POP PUSH2 0x26B PUSH2 0x4CC CALLDATASIZE PUSH1 0x4 PUSH2 0x2D57 JUMP JUMPDEST PUSH2 0x133E JUMP JUMPDEST CALLVALUE DUP1 ISZERO PUSH2 0x4DD JUMPI PUSH1 0x0 DUP1 REVERT JUMPDEST POP PUSH2 0x4F1 PUSH2 0x4EC CALLDATASIZE PUSH1 0x4 PUSH2 0x2D8C JUMP JUMPDEST PUSH2 0x14C3 JUMP JUMPDEST PUSH1 0x40 MLOAD PUSH2 0x1D7 SWAP2 SWAP1 DUP2 MLOAD DUP2 MSTORE PUSH1 0x20 DUP1 DUP4 ADD MLOAD PUSH1 0x1 PUSH1 0x1 PUSH1 0x80 SHL SUB AND SWAP1 DUP3 ADD MSTORE PUSH1 0x40 DUP1 DUP4 ADD MLOAD PUSH1 0xFF AND SWAP1 DUP3 ADD MSTORE PUSH1 0x60 DUP1 DUP4 ADD MLOAD PUSH1 0x1 PUSH1 0x1 PUSH1 0xE8 SHL SUB NOT AND SWAP1 DUP3 ADD MSTORE PUSH1 0x80 DUP1 DUP4 ADD MLOAD PUSH1 0x1 PUSH1 0x1 PUSH1 0xF8 SHL SUB NOT SWAP1 DUP2 AND SWAP2 DUP4 ADD SWAP2 SWAP1 SWAP2 MSTORE PUSH1 0xA0 SWAP3 DUP4 ADD MLOAD AND SWAP2 DUP2 ADD SWAP2 SWAP1 SWAP2 MSTORE PUSH1 0xC0 ADD SWAP1 JUMP JUMPDEST CALLVALUE DUP1 ISZERO PUSH2 0x56A JUMPI PUSH1 0x0 DUP1 REVERT JUMPDEST POP PUSH2 0x200 PUSH2 0x579 CALLDATASIZE PUSH1 0x4 PUSH2 0x28A0 JUMP JUMPDEST PUSH1 0x1 PUSH1 0x1 PUSH1 0xA0 SHL SUB SWAP2 DUP3 AND PUSH1 0x0 SWAP1 DUP2 MSTORE PUSH1 0x2 PUSH1 0x20 SWAP1 DUP2 MSTORE PUSH1 0x40 DUP1 DUP4 KECCAK256 SWAP4 SWAP1 SWAP5 AND DUP3 MSTORE SWAP2 SWAP1 SWAP2 MSTORE KECCAK256 SLOAD PUSH1 0xFF AND SWAP1 JUMP JUMPDEST CALLVALUE DUP1 ISZERO PUSH2 0x5B3 JUMPI PUSH1 0x0 DUP1 REVERT JUMPDEST POP PUSH2 0x26B PUSH2 0x5C2 CALLDATASIZE PUSH1 0x4 PUSH2 0x2DCA JUMP JUMPDEST PUSH2 0x15B2 JUMP JUMPDEST CALLVALUE DUP1 ISZERO PUSH2 0x5D3 JUMPI PUSH1 0x0 DUP1 REVERT JUMPDEST POP PUSH2 0x26B PUSH2 0x5E2 CALLDATASIZE PUSH1 0x4 PUSH2 0x297C JUMP JUMPDEST PUSH2 0x16B9 JUMP JUMPDEST CALLVALUE DUP1 ISZERO PUSH2 0x5F3 JUMPI PUSH1 0x0 DUP1 REVERT JUMPDEST POP PUSH2 0x26B PUSH2 0x602 CALLDATASIZE PUSH1 0x4 PUSH2 0x2885 JUMP JUMPDEST PUSH2 0x1740 JUMP JUMPDEST PUSH1 0x0 PUSH1 0x1 PUSH1 0x1 PUSH1 0xA0 SHL SUB DUP4 AND PUSH2 0x678 JUMPI PUSH1 0x40 MLOAD PUSH3 0x461BCD PUSH1 0xE5 SHL DUP2 MSTORE PUSH1 0x20 PUSH1 0x4 DUP3 ADD MSTORE PUSH1 0x2B PUSH1 0x24 DUP3 ADD MSTORE PUSH32 0x455243313135353A2062616C616E636520717565727920666F7220746865207A PUSH1 0x44 DUP3 ADD MSTORE PUSH11 0x65726F2061646472657373 PUSH1 0xA8 SHL PUSH1 0x64 DUP3 ADD MSTORE PUSH1 0x84 ADD JUMPDEST PUSH1 0x40 MLOAD DUP1 SWAP2 SUB SWAP1 REVERT JUMPDEST POP PUSH1 0x0 SWAP1 DUP2 MSTORE PUSH1 0x1 PUSH1 0x20 SWAP1 DUP2 MSTORE PUSH1 0x40 DUP1 DUP4 KECCAK256 PUSH1 0x1 PUSH1 0x1 PUSH1 0xA0 SHL SUB SWAP5 SWAP1 SWAP5 AND DUP4 MSTORE SWAP3 SWAP1 MSTORE KECCAK256 SLOAD SWAP1 JUMP JUMPDEST PUSH1 0x0 PUSH1 0x1 PUSH1 0x1 PUSH1 0xE0 SHL SUB NOT DUP3 AND PUSH4 0x6CDB3D13 PUSH1 0xE1 SHL EQ DUP1 PUSH2 0x6D1 JUMPI POP PUSH1 0x1 PUSH1 0x1 PUSH1 0xE0 SHL SUB NOT DUP3 AND PUSH4 0x3A24D07 PUSH1 0xE2 SHL EQ JUMPDEST DUP1 PUSH2 0x6EC JUMPI POP PUSH4 0x1FFC9A7 PUSH1 0xE0 SHL PUSH1 0x1 PUSH1 0x1 PUSH1 0xE0 SHL SUB NOT DUP4 AND EQ JUMPDEST SWAP3 SWAP2 POP POP JUMP JUMPDEST PUSH1 0x6 SLOAD PUSH1 0x1 PUSH1 0x1 PUSH1 0xA0 SHL SUB AND CALLER EQ PUSH2 0x71C JUMPI PUSH1 0x40 MLOAD PUSH3 0x461BCD PUSH1 0xE5 SHL DUP2 MSTORE PUSH1 0x4 ADD PUSH2 0x66F SWAP1 PUSH2 0x3210 JUMP JUMPDEST PUSH2 0x739 PUSH2 0x731 PUSH1 0x6 SLOAD PUSH1 0x1 PUSH1 0x1 PUSH1 0xA0 SHL SUB AND SWAP1 JUMP JUMPDEST DUP5 DUP5 DUP5 PUSH2 0x17DB JUMP JUMPDEST POP POP POP JUMP JUMPDEST PUSH1 0x0 DUP2 DUP2 MSTORE PUSH1 0x5 PUSH1 0x20 MSTORE PUSH1 0x40 DUP2 KECCAK256 DUP1 SLOAD PUSH1 0x60 SWAP3 SWAP2 SWAP1 PUSH2 0x75C SWAP1 PUSH2 0x33AF JUMP JUMPDEST DUP1 PUSH1 0x1F ADD PUSH1 0x20 DUP1 SWAP2 DIV MUL PUSH1 0x20 ADD PUSH1 0x40 MLOAD SWAP1 DUP2 ADD PUSH1 0x40 MSTORE DUP1 SWAP3 SWAP2 SWAP1 DUP2 DUP2 MSTORE PUSH1 0x20 ADD DUP3 DUP1 SLOAD PUSH2 0x788 SWAP1 PUSH2 0x33AF JUMP JUMPDEST DUP1 ISZERO PUSH2 0x7D5 JUMPI DUP1 PUSH1 0x1F LT PUSH2 0x7AA JUMPI PUSH2 0x100 DUP1 DUP4 SLOAD DIV MUL DUP4 MSTORE SWAP2 PUSH1 0x20 ADD SWAP2 PUSH2 0x7D5 JUMP JUMPDEST DUP3 ADD SWAP2 SWAP1 PUSH1 0x0 MSTORE PUSH1 0x20 PUSH1 0x0 KECCAK256 SWAP1 JUMPDEST DUP2 SLOAD DUP2 MSTORE SWAP1 PUSH1 0x1 ADD SWAP1 PUSH1 0x20 ADD DUP1 DUP4 GT PUSH2 0x7B8 JUMPI DUP3 SWAP1 SUB PUSH1 0x1F AND DUP3 ADD SWAP2 JUMPDEST POP POP POP POP POP SWAP1 POP PUSH1 0x0 DUP2 MLOAD GT PUSH2 0x7F3 JUMPI PUSH2 0x7EE DUP4 PUSH2 0x18C6 JUMP JUMPDEST PUSH2 0x817 JUMP JUMPDEST PUSH1 0x4 DUP2 PUSH1 0x40 MLOAD PUSH1 0x20 ADD PUSH2 0x807 SWAP3 SWAP2 SWAP1 PUSH2 0x2EF7 JUMP JUMPDEST PUSH1 0x40 MLOAD PUSH1 0x20 DUP2 DUP4 SUB SUB DUP2 MSTORE SWAP1 PUSH1 0x40 MSTORE JUMPDEST SWAP4 SWAP3 POP POP POP JUMP JUMPDEST PUSH1 0x8 SLOAD PUSH1 0x0 SWAP1 PUSH1 0x1 PUSH1 0x1 PUSH1 0x80 SHL SUB AND PUSH2 0x83D PUSH1 0x40 DUP7 ADD PUSH1 0x20 DUP8 ADD PUSH2 0x2D3A JUMP JUMPDEST PUSH1 0x1 PUSH1 0x1 PUSH1 0x80 SHL SUB AND EQ PUSH2 0x8AF JUMPI PUSH1 0x40 MLOAD PUSH3 0x461BCD PUSH1 0xE5 SHL DUP2 MSTORE PUSH1 0x20 PUSH1 0x4 DUP3 ADD MSTORE PUSH1 0x33 PUSH1 0x24 DUP3 ADD MSTORE PUSH32 0x476F7665726E65644E46543A20766F74696E67206973206E6F7420616C6C6F77 PUSH1 0x44 DUP3 ADD MSTORE PUSH19 0x1959081BDB881D1A1A5CC81C1C9BDC1BDCD85B PUSH1 0x6A SHL PUSH1 0x64 DUP3 ADD MSTORE PUSH1 0x84 ADD PUSH2 0x66F JUMP JUMPDEST PUSH1 0x8 SLOAD PUSH1 0x1 PUSH1 0x1 PUSH1 0x80 SHL SUB AND PUSH1 0x7 PUSH1 0x0 PUSH2 0x8CC PUSH1 0x20 DUP9 ADD DUP9 PUSH2 0x2885 JUMP JUMPDEST PUSH1 0x1 PUSH1 0x1 PUSH1 0xA0 SHL SUB AND DUP2 MSTORE PUSH1 0x20 DUP2 ADD SWAP2 SWAP1 SWAP2 MSTORE PUSH1 0x40 ADD PUSH1 0x0 KECCAK256 SLOAD PUSH2 0x100 SWAP1 DIV PUSH1 0x1 PUSH1 0x1 PUSH1 0x80 SHL SUB AND LT PUSH2 0x958 JUMPI PUSH1 0x40 MLOAD PUSH3 0x461BCD PUSH1 0xE5 SHL DUP2 MSTORE PUSH1 0x20 PUSH1 0x4 DUP3 ADD MSTORE PUSH1 0x2E PUSH1 0x24 DUP3 ADD MSTORE PUSH32 0x476F7665726E65644E46543A207468697320696E646976696475616C20686173 PUSH1 0x44 DUP3 ADD MSTORE PUSH14 0x8185B1C9958591E481D9BDD1959 PUSH1 0x92 SHL PUSH1 0x64 DUP3 ADD MSTORE PUSH1 0x84 ADD PUSH2 0x66F JUMP JUMPDEST PUSH1 0x9 SLOAD TIMESTAMP GT PUSH2 0x9B8 JUMPI PUSH1 0x40 MLOAD PUSH3 0x461BCD PUSH1 0xE5 SHL DUP2 MSTORE PUSH1 0x20 PUSH1 0x4 DUP3 ADD MSTORE PUSH1 0x26 PUSH1 0x24 DUP3 ADD MSTORE PUSH32 0x476F7665726E65644E46543A207468697320766F7465206973206E6F74207965 PUSH1 0x44 DUP3 ADD MSTORE PUSH6 0x3A1037B832B7 PUSH1 0xD1 SHL PUSH1 0x64 DUP3 ADD MSTORE PUSH1 0x84 ADD PUSH2 0x66F JUMP JUMPDEST PUSH1 0xA SLOAD TIMESTAMP LT PUSH2 0xA1C JUMPI PUSH1 0x40 MLOAD PUSH3 0x461BCD PUSH1 0xE5 SHL DUP2 MSTORE PUSH1 0x20 PUSH1 0x4 DUP3 ADD MSTORE PUSH1 0x2A PUSH1 0x24 DUP3 ADD MSTORE PUSH32 0x476F7665726E65644E46543A207468697320766F7465206973206E6F74206F70 PUSH1 0x44 DUP3 ADD MSTORE PUSH10 0x656E20616E796D6F7265 PUSH1 0xB0 SHL PUSH1 0x64 DUP3 ADD MSTORE PUSH1 0x84 ADD PUSH2 0x66F JUMP JUMPDEST PUSH1 0x0 PUSH2 0xB17 DUP5 DUP5 DUP1 DUP1 PUSH1 0x1F ADD PUSH1 0x20 DUP1 SWAP2 DIV MUL PUSH1 0x20 ADD PUSH1 0x40 MLOAD SWAP1 DUP2 ADD PUSH1 0x40 MSTORE DUP1 SWAP4 SWAP3 SWAP2 SWAP1 DUP2 DUP2 MSTORE PUSH1 0x20 ADD DUP4 DUP4 DUP1 DUP3 DUP5 CALLDATACOPY PUSH1 0x0 SWAP3 ADD SWAP2 SWAP1 SWAP2 MSTORE POP PUSH2 0xB11 SWAP3 POP PUSH32 0x9FA823D86348B9EDCE249274F703FC4B6026142167FFE72CD90A5CA74827FA97 SWAP2 POP PUSH2 0xA8B SWAP1 POP PUSH1 0x20 DUP11 ADD DUP11 PUSH2 0x2885 JUMP JUMPDEST PUSH2 0xA9B PUSH1 0x40 DUP12 ADD PUSH1 0x20 DUP13 ADD PUSH2 0x2D3A JUMP JUMPDEST PUSH2 0xAA8 PUSH1 0x40 DUP13 ADD DUP13 PUSH2 0x32CE JUMP JUMPDEST PUSH1 0x40 MLOAD PUSH2 0xAB6 SWAP3 SWAP2 SWAP1 PUSH2 0x2EE7 JUMP JUMPDEST PUSH1 0x40 MLOAD SWAP1 DUP2 SWAP1 SUB DUP2 KECCAK256 PUSH2 0xAF6 SWAP5 SWAP4 SWAP3 SWAP2 PUSH1 0x20 ADD SWAP4 DUP5 MSTORE PUSH1 0x1 PUSH1 0x1 PUSH1 0xA0 SHL SUB SWAP3 SWAP1 SWAP3 AND PUSH1 0x20 DUP5 ADD MSTORE PUSH1 0x1 PUSH1 0x1 PUSH1 0x80 SHL SUB AND PUSH1 0x40 DUP4 ADD MSTORE PUSH1 0x60 DUP3 ADD MSTORE PUSH1 0x80 ADD SWAP1 JUMP JUMPDEST PUSH1 0x40 MLOAD PUSH1 0x20 DUP2 DUP4 SUB SUB DUP2 MSTORE SWAP1 PUSH1 0x40 MSTORE DUP1 MLOAD SWAP1 PUSH1 0x20 ADD KECCAK256 PUSH2 0x195A JUMP JUMPDEST SWAP1 PUSH2 0x19A8 JUMP JUMPDEST SWAP1 POP PUSH2 0xB26 PUSH1 0x20 DUP7 ADD DUP7 PUSH2 0x2885 JUMP JUMPDEST PUSH1 0x1 PUSH1 0x1 PUSH1 0xA0 SHL SUB SWAP2 DUP3 AND SWAP2 AND EQ SWAP5 SWAP4 POP POP POP POP JUMP JUMPDEST PUSH1 0x1 PUSH1 0x1 PUSH1 0xA0 SHL SUB DUP6 AND CALLER EQ DUP1 PUSH2 0xB58 JUMPI POP PUSH2 0xB58 DUP6 CALLER PUSH2 0x579 JUMP JUMPDEST PUSH2 0xBBF JUMPI PUSH1 0x40 MLOAD PUSH3 0x461BCD PUSH1 0xE5 SHL DUP2 MSTORE PUSH1 0x20 PUSH1 0x4 DUP3 ADD MSTORE PUSH1 0x32 PUSH1 0x24 DUP3 ADD MSTORE PUSH32 0x455243313135353A207472616E736665722063616C6C6572206973206E6F7420 PUSH1 0x44 DUP3 ADD MSTORE PUSH18 0x1BDDDB995C881B9BDC88185C1C1C9BDD9959 PUSH1 0x72 SHL PUSH1 0x64 DUP3 ADD MSTORE PUSH1 0x84 ADD PUSH2 0x66F JUMP JUMPDEST PUSH2 0xBCC DUP6 DUP6 DUP6 DUP6 DUP6 PUSH2 0x19C4 JUMP JUMPDEST POP POP POP POP POP JUMP JUMPDEST PUSH1 0x60 DUP2 MLOAD DUP4 MLOAD EQ PUSH2 0xC38 JUMPI PUSH1 0x40 MLOAD PUSH3 0x461BCD PUSH1 0xE5 SHL DUP2 MSTORE PUSH1 0x20 PUSH1 0x4 DUP3 ADD MSTORE PUSH1 0x29 PUSH1 0x24 DUP3 ADD MSTORE PUSH32 0x455243313135353A206163636F756E747320616E6420696473206C656E677468 PUSH1 0x44 DUP3 ADD MSTORE PUSH9 0x40DAD2E6DAC2E8C6D PUSH1 0xBB SHL PUSH1 0x64 DUP3 ADD MSTORE PUSH1 0x84 ADD PUSH2 0x66F JUMP JUMPDEST PUSH1 0x0 DUP4 MLOAD PUSH1 0x1 PUSH1 0x1 PUSH1 0x40 SHL SUB DUP2 GT ISZERO PUSH2 0xC53 JUMPI PUSH2 0xC53 PUSH2 0x346D JUMP JUMPDEST PUSH1 0x40 MLOAD SWAP1 DUP1 DUP3 MSTORE DUP1 PUSH1 0x20 MUL PUSH1 0x20 ADD DUP3 ADD PUSH1 0x40 MSTORE DUP1 ISZERO PUSH2 0xC7C JUMPI DUP2 PUSH1 0x20 ADD PUSH1 0x20 DUP3 MUL DUP1 CALLDATASIZE DUP4 CALLDATACOPY ADD SWAP1 POP JUMPDEST POP SWAP1 POP PUSH1 0x0 JUMPDEST DUP5 MLOAD DUP2 LT ISZERO PUSH2 0xCF4 JUMPI PUSH2 0xCC7 DUP6 DUP3 DUP2 MLOAD DUP2 LT PUSH2 0xCA0 JUMPI PUSH2 0xCA0 PUSH2 0x3457 JUMP JUMPDEST PUSH1 0x20 MUL PUSH1 0x20 ADD ADD MLOAD DUP6 DUP4 DUP2 MLOAD DUP2 LT PUSH2 0xCBA JUMPI PUSH2 0xCBA PUSH2 0x3457 JUMP JUMPDEST PUSH1 0x20 MUL PUSH1 0x20 ADD ADD MLOAD PUSH2 0x607 JUMP JUMPDEST DUP3 DUP3 DUP2 MLOAD DUP2 LT PUSH2 0xCD9 JUMPI PUSH2 0xCD9 PUSH2 0x3457 JUMP JUMPDEST PUSH1 0x20 SWAP1 DUP2 MUL SWAP2 SWAP1 SWAP2 ADD ADD MSTORE PUSH2 0xCED DUP2 PUSH2 0x3410 JUMP JUMPDEST SWAP1 POP PUSH2 0xC82 JUMP JUMPDEST POP SWAP4 SWAP3 POP POP POP JUMP JUMPDEST PUSH1 0x6 SLOAD PUSH1 0x1 PUSH1 0x1 PUSH1 0xA0 SHL SUB AND CALLER EQ PUSH2 0xD26 JUMPI PUSH1 0x40 MLOAD PUSH3 0x461BCD PUSH1 0xE5 SHL DUP2 MSTORE PUSH1 0x4 ADD PUSH2 0x66F SWAP1 PUSH2 0x3210 JUMP JUMPDEST PUSH1 0x0 DUP3 DUP2 MSTORE PUSH1 0xC PUSH1 0x20 SWAP1 DUP2 MSTORE PUSH1 0x40 SWAP2 DUP3 SWAP1 KECCAK256 PUSH1 0x1 DUP2 ADD DUP1 SLOAD PUSH1 0xFF PUSH1 0xA8 SHL NOT AND PUSH1 0x1 PUSH1 0xA8 SHL PUSH1 0xF8 DUP8 SWAP1 SHR MUL OR SWAP1 SSTORE SLOAD SWAP2 MLOAD PUSH1 0x1 PUSH1 0x1 PUSH1 0xF8 SHL SUB NOT DUP5 AND DUP2 MSTORE DUP5 SWAP2 PUSH32 0x55AB1E6058A5C223B6A969D1ACB726532FFBCF17E0C9C853961409D74260B6D SWAP2 ADD JUMPDEST PUSH1 0x40 MLOAD DUP1 SWAP2 SUB SWAP1 LOG3 POP POP JUMP JUMPDEST PUSH1 0x6 SLOAD PUSH1 0x1 PUSH1 0x1 PUSH1 0xA0 SHL SUB AND CALLER EQ PUSH2 0xDBF JUMPI PUSH1 0x40 MLOAD PUSH3 0x461BCD PUSH1 0xE5 SHL DUP2 MSTORE PUSH1 0x4 ADD PUSH2 0x66F SWAP1 PUSH2 0x3210 JUMP JUMPDEST PUSH2 0xDC9 PUSH1 0x0 PUSH2 0x1B69 JUMP JUMPDEST JUMP JUMPDEST PUSH1 0x6 SLOAD PUSH1 0x1 PUSH1 0x1 PUSH1 0xA0 SHL SUB AND CALLER EQ PUSH2 0xDF5 JUMPI PUSH1 0x40 MLOAD PUSH3 0x461BCD PUSH1 0xE5 SHL DUP2 MSTORE PUSH1 0x4 ADD PUSH2 0x66F SWAP1 PUSH2 0x3210 JUMP JUMPDEST PUSH1 0x1 PUSH1 0x1 PUSH1 0xA0 SHL SUB AND PUSH1 0x0 SWAP1 DUP2 MSTORE PUSH1 0x7 PUSH1 0x20 MSTORE PUSH1 0x40 SWAP1 KECCAK256 DUP1 SLOAD PUSH1 0xFF NOT AND PUSH1 0x1 OR SWAP1 SSTORE JUMP JUMPDEST PUSH1 0x7 PUSH1 0x0 PUSH2 0xE2A PUSH1 0x20 DUP9 ADD DUP9 PUSH2 0x2885 JUMP JUMPDEST PUSH1 0x1 PUSH1 0x1 PUSH1 0xA0 SHL SUB AND DUP2 MSTORE PUSH1 0x20 DUP2 ADD SWAP2 SWAP1 SWAP2 MSTORE PUSH1 0x40 ADD PUSH1 0x0 KECCAK256 SLOAD PUSH1 0xFF AND ISZERO PUSH2 0xEB0 JUMPI PUSH1 0x40 MLOAD PUSH3 0x461BCD PUSH1 0xE5 SHL DUP2 MSTORE PUSH1 0x20 PUSH1 0x4 DUP3 ADD MSTORE PUSH1 0x33 PUSH1 0x24 DUP3 ADD MSTORE PUSH32 0x476F7665726E65644E46543A207468697320696E646976696475616C20697320 PUSH1 0x44 DUP3 ADD MSTORE PUSH19 0x6E6F7420616C6C6F77656420746F20766F7465 PUSH1 0x68 SHL PUSH1 0x64 DUP3 ADD MSTORE PUSH1 0x84 ADD PUSH2 0x66F JUMP JUMPDEST PUSH2 0xEBB DUP6 DUP6 DUP6 PUSH2 0x81E JUMP JUMPDEST PUSH2 0xF07 JUMPI PUSH1 0x40 MLOAD PUSH3 0x461BCD PUSH1 0xE5 SHL DUP2 MSTORE PUSH1 0x20 PUSH1 0x4 DUP3 ADD MSTORE PUSH1 0x19 PUSH1 0x24 DUP3 ADD MSTORE PUSH32 0x476F7665726E65644E46543A20696E76616C696420766F746500000000000000 PUSH1 0x44 DUP3 ADD MSTORE PUSH1 0x64 ADD PUSH2 0x66F JUMP JUMPDEST PUSH1 0x0 DUP1 JUMPDEST DUP3 DUP2 LT ISZERO PUSH2 0x112B JUMPI PUSH2 0xF41 PUSH2 0xF23 PUSH1 0x20 DUP10 ADD DUP10 PUSH2 0x2885 JUMP JUMPDEST DUP6 DUP6 DUP5 DUP2 DUP2 LT PUSH2 0xF35 JUMPI PUSH2 0xF35 PUSH2 0x3457 JUMP JUMPDEST SWAP1 POP PUSH1 0x20 MUL ADD CALLDATALOAD PUSH2 0x607 JUMP JUMPDEST ISZERO PUSH2 0x1119 JUMPI PUSH1 0x1 SWAP2 POP PUSH1 0xB PUSH1 0x0 PUSH2 0xF5E PUSH1 0x40 DUP11 ADD PUSH1 0x20 DUP12 ADD PUSH2 0x2D3A JUMP JUMPDEST PUSH1 0x1 PUSH1 0x1 PUSH1 0x80 SHL SUB AND PUSH1 0x1 PUSH1 0x1 PUSH1 0x80 SHL SUB AND DUP2 MSTORE PUSH1 0x20 ADD SWAP1 DUP2 MSTORE PUSH1 0x20 ADD PUSH1 0x0 KECCAK256 PUSH1 0x40 MLOAD DUP1 PUSH1 0xA0 ADD PUSH1 0x40 MSTORE DUP1 DUP10 PUSH1 0x0 ADD PUSH1 0x20 DUP2 ADD SWAP1 PUSH2 0xF9C SWAP2 SWAP1 PUSH2 0x2885 JUMP JUMPDEST PUSH1 0x1 PUSH1 0x1 PUSH1 0xA0 SHL SUB AND DUP2 MSTORE PUSH1 0x20 ADD DUP7 DUP7 DUP6 DUP2 DUP2 LT PUSH2 0xFBC JUMPI PUSH2 0xFBC PUSH2 0x3457 JUMP JUMPDEST SWAP1 POP PUSH1 0x20 MUL ADD CALLDATALOAD DUP2 MSTORE PUSH1 0x20 ADD DUP10 DUP1 PUSH1 0x40 ADD SWAP1 PUSH2 0xFD8 SWAP2 SWAP1 PUSH2 0x32CE JUMP JUMPDEST PUSH2 0xFE1 SWAP2 PUSH2 0x334F JUMP JUMPDEST PUSH1 0x1 PUSH1 0x1 PUSH1 0x80 SHL SUB NOT AND DUP2 MSTORE PUSH1 0x20 ADD DUP9 DUP9 DUP1 DUP1 PUSH1 0x1F ADD PUSH1 0x20 DUP1 SWAP2 DIV MUL PUSH1 0x20 ADD PUSH1 0x40 MLOAD SWAP1 DUP2 ADD PUSH1 0x40 MSTORE DUP1 SWAP4 SWAP3 SWAP2 SWAP1 DUP2 DUP2 MSTORE PUSH1 0x20 ADD DUP4 DUP4 DUP1 DUP3 DUP5 CALLDATACOPY PUSH1 0x0 SWAP3 ADD DUP3 SWAP1 MSTORE POP SWAP4 DUP6 MSTORE POP POP TIMESTAMP PUSH1 0x20 SWAP4 DUP5 ADD MSTORE POP DUP4 SLOAD PUSH1 0x1 DUP1 DUP3 ADD DUP7 SSTORE SWAP5 DUP3 MSTORE SWAP1 DUP3 SWAP1 KECCAK256 DUP4 MLOAD PUSH1 0x5 SWAP1 SWAP3 MUL ADD DUP1 SLOAD PUSH1 0x1 PUSH1 0x1 PUSH1 0xA0 SHL SUB NOT AND PUSH1 0x1 PUSH1 0x1 PUSH1 0xA0 SHL SUB SWAP1 SWAP3 AND SWAP2 SWAP1 SWAP2 OR DUP2 SSTORE DUP3 DUP3 ADD MLOAD SWAP4 DUP2 ADD SWAP4 SWAP1 SWAP4 SSTORE PUSH1 0x40 DUP3 ADD MLOAD PUSH1 0x2 DUP5 ADD DUP1 SLOAD PUSH1 0x1 PUSH1 0x1 PUSH1 0x80 SHL SUB NOT AND PUSH1 0x80 SWAP3 SWAP1 SWAP3 SHR SWAP2 SWAP1 SWAP2 OR SWAP1 SSTORE PUSH1 0x60 DUP3 ADD MLOAD DUP1 MLOAD SWAP3 SWAP4 SWAP3 PUSH2 0x10AA SWAP3 PUSH1 0x3 DUP6 ADD SWAP3 ADD SWAP1 PUSH2 0x2692 JUMP JUMPDEST POP PUSH1 0x80 DUP3 ADD MLOAD DUP2 PUSH1 0x4 ADD SSTORE POP POP DUP4 DUP4 DUP3 DUP2 DUP2 LT PUSH2 0x10C9 JUMPI PUSH2 0x10C9 PUSH2 0x3457 JUMP JUMPDEST SWAP1 POP PUSH1 0x20 MUL ADD CALLDATALOAD DUP8 PUSH1 0x0 ADD PUSH1 0x20 DUP2 ADD SWAP1 PUSH2 0x10E3 SWAP2 SWAP1 PUSH2 0x2885 JUMP JUMPDEST PUSH1 0x1 PUSH1 0x1 PUSH1 0xA0 SHL SUB AND PUSH32 0x9102BE182515B5E047EB5E72C098572104D73B31B52B9766D92B745FCF4323B1 PUSH1 0x40 MLOAD PUSH1 0x40 MLOAD DUP1 SWAP2 SUB SWAP1 LOG3 JUMPDEST DUP1 PUSH2 0x1123 DUP2 PUSH2 0x3410 JUMP JUMPDEST SWAP2 POP POP PUSH2 0xF0B JUMP JUMPDEST POP DUP1 ISZERO PUSH2 0x1197 JUMPI PUSH1 0x8 SLOAD PUSH1 0x1 PUSH1 0x1 PUSH1 0x80 SHL SUB AND PUSH1 0x7 PUSH1 0x0 PUSH2 0x114F PUSH1 0x20 DUP11 ADD DUP11 PUSH2 0x2885 JUMP JUMPDEST PUSH1 0x1 PUSH1 0x1 PUSH1 0xA0 SHL SUB AND DUP2 MSTORE PUSH1 0x20 DUP2 ADD SWAP2 SWAP1 SWAP2 MSTORE PUSH1 0x40 ADD PUSH1 0x0 KECCAK256 DUP1 SLOAD PUSH1 0x1 PUSH1 0x1 PUSH1 0x80 SHL SUB SWAP3 SWAP1 SWAP3 AND PUSH2 0x100 MUL PUSH17 0xFFFFFFFFFFFFFFFFFFFFFFFFFFFFFFFF00 NOT SWAP1 SWAP3 AND SWAP2 SWAP1 SWAP2 OR SWAP1 SSTORE JUMPDEST POP POP POP POP POP POP JUMP JUMPDEST PUSH2 0x11AA CALLER DUP4 DUP4 PUSH2 0x1BBB JUMP JUMPDEST POP POP JUMP JUMPDEST PUSH1 0x1 PUSH1 0x1 PUSH1 0x80 SHL SUB DUP2 AND PUSH1 0x0 SWAP1 DUP2 MSTORE PUSH1 0xB PUSH1 0x20 SWAP1 DUP2 MSTORE PUSH1 0x40 DUP1 DUP4 KECCAK256 DUP1 SLOAD DUP3 MLOAD DUP2 DUP6 MUL DUP2 ADD DUP6 ADD SWAP1 SWAP4 MSTORE DUP1 DUP4 MSTORE PUSH1 0x60 SWAP5 SWAP3 SWAP4 SWAP2 SWAP3 SWAP1 SWAP2 DUP5 ADD JUMPDEST DUP3 DUP3 LT ISZERO PUSH2 0x12EC JUMPI PUSH1 0x0 DUP5 DUP2 MSTORE PUSH1 0x20 SWAP1 DUP2 SWAP1 KECCAK256 PUSH1 0x40 DUP1 MLOAD PUSH1 0xA0 DUP2 ADD DUP3 MSTORE PUSH1 0x5 DUP7 MUL SWAP1 SWAP3 ADD DUP1 SLOAD PUSH1 0x1 PUSH1 0x1 PUSH1 0xA0 SHL SUB AND DUP4 MSTORE PUSH1 0x1 DUP2 ADD SLOAD SWAP4 DUP4 ADD SWAP4 SWAP1 SWAP4 MSTORE PUSH1 0x2 DUP4 ADD SLOAD PUSH1 0x80 SHL PUSH1 0x1 PUSH1 0x1 PUSH1 0x80 SHL SUB NOT AND SWAP1 DUP3 ADD MSTORE PUSH1 0x3 DUP3 ADD DUP1 SLOAD SWAP2 SWAP3 SWAP2 PUSH1 0x60 DUP5 ADD SWAP2 SWAP1 PUSH2 0x1251 SWAP1 PUSH2 0x33AF JUMP JUMPDEST DUP1 PUSH1 0x1F ADD PUSH1 0x20 DUP1 SWAP2 DIV MUL PUSH1 0x20 ADD PUSH1 0x40 MLOAD SWAP1 DUP2 ADD PUSH1 0x40 MSTORE DUP1 SWAP3 SWAP2 SWAP1 DUP2 DUP2 MSTORE PUSH1 0x20 ADD DUP3 DUP1 SLOAD PUSH2 0x127D SWAP1 PUSH2 0x33AF JUMP JUMPDEST DUP1 ISZERO PUSH2 0x12CA JUMPI DUP1 PUSH1 0x1F LT PUSH2 0x129F JUMPI PUSH2 0x100 DUP1 DUP4 SLOAD DIV MUL DUP4 MSTORE SWAP2 PUSH1 0x20 ADD SWAP2 PUSH2 0x12CA JUMP JUMPDEST DUP3 ADD SWAP2 SWAP1 PUSH1 0x0 MSTORE PUSH1 0x20 PUSH1 0x0 KECCAK256 SWAP1 JUMPDEST DUP2 SLOAD DUP2 MSTORE SWAP1 PUSH1 0x1 ADD SWAP1 PUSH1 0x20 ADD DUP1 DUP4 GT PUSH2 0x12AD JUMPI DUP3 SWAP1 SUB PUSH1 0x1F AND DUP3 ADD SWAP2 JUMPDEST POP POP POP POP POP DUP2 MSTORE PUSH1 0x20 ADD PUSH1 0x4 DUP3 ADD SLOAD DUP2 MSTORE POP POP DUP2 MSTORE PUSH1 0x20 ADD SWAP1 PUSH1 0x1 ADD SWAP1 PUSH2 0x11E6 JUMP JUMPDEST POP POP POP POP SWAP1 POP SWAP2 SWAP1 POP JUMP JUMPDEST PUSH1 0x6 SLOAD PUSH1 0x1 PUSH1 0x1 PUSH1 0xA0 SHL SUB AND CALLER EQ PUSH2 0x1321 JUMPI PUSH1 0x40 MLOAD PUSH3 0x461BCD PUSH1 0xE5 SHL DUP2 MSTORE PUSH1 0x4 ADD PUSH2 0x66F SWAP1 PUSH2 0x3210 JUMP JUMPDEST PUSH2 0x739 PUSH2 0x1336 PUSH1 0x6 SLOAD PUSH1 0x1 PUSH1 0x1 PUSH1 0xA0 SHL SUB AND SWAP1 JUMP JUMPDEST DUP5 DUP5 DUP5 PUSH2 0x1C9C JUMP JUMPDEST PUSH1 0x8 SLOAD PUSH1 0x1 PUSH1 0x1 PUSH1 0x80 SHL SUB SWAP1 DUP2 AND SWAP1 DUP5 AND GT PUSH2 0x13D1 JUMPI PUSH1 0x40 MLOAD PUSH3 0x461BCD PUSH1 0xE5 SHL DUP2 MSTORE PUSH1 0x20 PUSH1 0x4 DUP3 ADD MSTORE PUSH1 0x46 PUSH1 0x24 DUP3 ADD MSTORE PUSH32 0x476F7665726E65644E46543A20746865206E657720766F7465206D7573742068 PUSH1 0x44 DUP3 ADD MSTORE PUSH32 0x6176652061206C6172676572206964207468616E207468652070726576696F75 PUSH1 0x64 DUP3 ADD MSTORE PUSH6 0x73206F6E6573 PUSH1 0xD0 SHL PUSH1 0x84 DUP3 ADD MSTORE PUSH1 0xA4 ADD PUSH2 0x66F JUMP JUMPDEST DUP2 DUP2 GT PUSH2 0x1438 JUMPI PUSH1 0x40 MLOAD PUSH3 0x461BCD PUSH1 0xE5 SHL DUP2 MSTORE PUSH1 0x20 PUSH1 0x4 DUP3 ADD MSTORE PUSH1 0x2F PUSH1 0x24 DUP3 ADD MSTORE PUSH32 0x476F7665726E65644E46543A2074686520656E642063616E6E6F742062652062 PUSH1 0x44 DUP3 ADD MSTORE PUSH15 0x19599BDC99481D1A19481CDD185C9D PUSH1 0x8A SHL PUSH1 0x64 DUP3 ADD MSTORE PUSH1 0x84 ADD PUSH2 0x66F JUMP JUMPDEST TIMESTAMP DUP2 GT PUSH2 0x149A JUMPI PUSH1 0x40 MLOAD PUSH3 0x461BCD PUSH1 0xE5 SHL DUP2 MSTORE PUSH1 0x20 PUSH1 0x4 DUP3 ADD MSTORE PUSH1 0x2A PUSH1 0x24 DUP3 ADD MSTORE PUSH32 0x476F7665726E65644E46543A2074686520656E642063616E6E6F742062652069 PUSH1 0x44 DUP3 ADD MSTORE PUSH10 0x1B881D1A19481C185CDD PUSH1 0xB2 SHL PUSH1 0x64 DUP3 ADD MSTORE PUSH1 0x84 ADD PUSH2 0x66F JUMP JUMPDEST PUSH1 0x8 DUP1 SLOAD PUSH1 0x1 PUSH1 0x1 PUSH1 0x80 SHL SUB NOT AND PUSH1 0x1 PUSH1 0x1 PUSH1 0x80 SHL SUB SWAP5 SWAP1 SWAP5 AND SWAP4 SWAP1 SWAP4 OR SWAP1 SWAP3 SSTORE PUSH1 0x9 SSTORE PUSH1 0xA SSTORE JUMP JUMPDEST PUSH1 0x40 DUP1 MLOAD PUSH1 0xC0 DUP2 ADD DUP3 MSTORE PUSH1 0x0 DUP1 DUP3 MSTORE PUSH1 0x20 DUP3 ADD DUP2 SWAP1 MSTORE SWAP2 DUP2 ADD DUP3 SWAP1 MSTORE PUSH1 0x60 DUP2 ADD DUP3 SWAP1 MSTORE PUSH1 0x80 DUP2 ADD DUP3 SWAP1 MSTORE PUSH1 0xA0 DUP2 ADD SWAP2 SWAP1 SWAP2 MSTORE PUSH1 0x6 SLOAD PUSH1 0x1 PUSH1 0x1 PUSH1 0xA0 SHL SUB AND CALLER EQ PUSH2 0x151F JUMPI PUSH1 0x40 MLOAD PUSH3 0x461BCD PUSH1 0xE5 SHL DUP2 MSTORE PUSH1 0x4 ADD PUSH2 0x66F SWAP1 PUSH2 0x3210 JUMP JUMPDEST POP PUSH1 0x0 DUP2 DUP2 MSTORE PUSH1 0xC PUSH1 0x20 SWAP1 DUP2 MSTORE PUSH1 0x40 SWAP2 DUP3 SWAP1 KECCAK256 DUP3 MLOAD PUSH1 0xC0 DUP2 ADD DUP5 MSTORE DUP2 SLOAD DUP2 MSTORE PUSH1 0x1 SWAP1 SWAP2 ADD SLOAD PUSH1 0x1 PUSH1 0x1 PUSH1 0x80 SHL SUB DUP2 AND SWAP3 DUP3 ADD SWAP3 SWAP1 SWAP3 MSTORE PUSH1 0xFF PUSH1 0x1 PUSH1 0x80 SHL DUP4 DIV AND SWAP3 DUP2 ADD SWAP3 SWAP1 SWAP3 MSTORE PUSH1 0x1 PUSH1 0x1 PUSH1 0xE8 SHL SUB NOT PUSH1 0x1 PUSH1 0x88 SHL DUP3 DIV PUSH1 0xE8 SHL AND PUSH1 0x60 DUP4 ADD MSTORE PUSH1 0x1 PUSH1 0x1 PUSH1 0xF8 SHL SUB NOT PUSH1 0x1 PUSH1 0xA0 SHL DUP3 DIV PUSH1 0xF8 SWAP1 DUP2 SHL DUP3 AND PUSH1 0x80 DUP6 ADD MSTORE PUSH1 0x1 PUSH1 0xA8 SHL SWAP1 SWAP3 DIV SWAP1 SWAP2 SHL AND PUSH1 0xA0 DUP3 ADD MSTORE JUMPDEST SWAP2 SWAP1 POP JUMP JUMPDEST PUSH1 0x6 SLOAD PUSH1 0x1 PUSH1 0x1 PUSH1 0xA0 SHL SUB AND CALLER EQ PUSH2 0x15DC JUMPI PUSH1 0x40 MLOAD PUSH3 0x461BCD PUSH1 0xE5 SHL DUP2 MSTORE PUSH1 0x4 ADD PUSH2 0x66F SWAP1 PUSH2 0x3210 JUMP JUMPDEST PUSH1 0x0 DUP3 DUP2 MSTORE PUSH1 0xC PUSH1 0x20 MSTORE PUSH1 0x40 SWAP1 KECCAK256 DUP2 SWAP1 PUSH2 0x15F6 DUP3 DUP3 PUSH2 0x3534 JUMP JUMPDEST POP POP DUP1 CALLDATALOAD DUP3 PUSH32 0x4D06ADCC78CBF1837ADC1D90122283C59FC77D3EEF2C4E3EB4A7730F7AE9E4B4 PUSH2 0x162C PUSH1 0x40 DUP6 ADD PUSH1 0x20 DUP7 ADD PUSH2 0x2D3A JUMP JUMPDEST PUSH2 0x163C PUSH1 0x60 DUP7 ADD PUSH1 0x40 DUP8 ADD PUSH2 0x2E47 JUMP JUMPDEST PUSH2 0x164C PUSH1 0x80 DUP8 ADD PUSH1 0x60 DUP9 ADD PUSH2 0x2BBA JUMP JUMPDEST PUSH2 0x165C PUSH1 0xA0 DUP9 ADD PUSH1 0x80 DUP10 ADD PUSH2 0x2B9D JUMP JUMPDEST PUSH2 0x166C PUSH1 0xC0 DUP10 ADD PUSH1 0xA0 DUP11 ADD PUSH2 0x2B9D JUMP JUMPDEST PUSH1 0x40 DUP1 MLOAD PUSH1 0x1 PUSH1 0x1 PUSH1 0x80 SHL SUB SWAP1 SWAP7 AND DUP7 MSTORE PUSH1 0xFF SWAP1 SWAP5 AND PUSH1 0x20 DUP7 ADD MSTORE PUSH1 0x1 PUSH1 0x1 PUSH1 0xE8 SHL SUB NOT SWAP1 SWAP3 AND SWAP3 DUP5 ADD SWAP3 SWAP1 SWAP3 MSTORE PUSH1 0x1 PUSH1 0x1 PUSH1 0xF8 SHL SUB NOT SWAP2 DUP3 AND PUSH1 0x60 DUP5 ADD MSTORE AND PUSH1 0x80 DUP3 ADD MSTORE PUSH1 0xA0 ADD PUSH2 0xD89 JUMP JUMPDEST PUSH1 0x1 PUSH1 0x1 PUSH1 0xA0 SHL SUB DUP6 AND CALLER EQ DUP1 PUSH2 0x16D5 JUMPI POP PUSH2 0x16D5 DUP6 CALLER PUSH2 0x579 JUMP JUMPDEST PUSH2 0x1733 JUMPI PUSH1 0x40 MLOAD PUSH3 0x461BCD PUSH1 0xE5 SHL DUP2 MSTORE PUSH1 0x20 PUSH1 0x4 DUP3 ADD MSTORE PUSH1 0x29 PUSH1 0x24 DUP3 ADD MSTORE PUSH32 0x455243313135353A2063616C6C6572206973206E6F74206F776E6572206E6F72 PUSH1 0x44 DUP3 ADD MSTORE PUSH9 0x8185C1C1C9BDD9959 PUSH1 0xBA SHL PUSH1 0x64 DUP3 ADD MSTORE PUSH1 0x84 ADD PUSH2 0x66F JUMP JUMPDEST PUSH2 0xBCC DUP6 DUP6 DUP6 DUP6 DUP6 PUSH2 0x1DF7 JUMP JUMPDEST PUSH1 0x6 SLOAD PUSH1 0x1 PUSH1 0x1 PUSH1 0xA0 SHL SUB AND CALLER EQ PUSH2 0x176A JUMPI PUSH1 0x40 MLOAD PUSH3 0x461BCD PUSH1 0xE5 SHL DUP2 MSTORE PUSH1 0x4 ADD PUSH2 0x66F SWAP1 PUSH2 0x3210 JUMP JUMPDEST PUSH1 0x1 PUSH1 0x1 PUSH1 0xA0 SHL SUB DUP2 AND PUSH2 0x17CF JUMPI PUSH1 0x40 MLOAD PUSH3 0x461BCD PUSH1 0xE5 SHL DUP2 MSTORE PUSH1 0x20 PUSH1 0x4 DUP3 ADD MSTORE PUSH1 0x26 PUSH1 0x24 DUP3 ADD MSTORE PUSH32 0x4F776E61626C653A206E6577206F776E657220697320746865207A65726F2061 PUSH1 0x44 DUP3 ADD MSTORE PUSH6 0x646472657373 PUSH1 0xD0 SHL PUSH1 0x64 DUP3 ADD MSTORE PUSH1 0x84 ADD PUSH2 0x66F JUMP JUMPDEST PUSH2 0x17D8 DUP2 PUSH2 0x1B69 JUMP JUMPDEST POP JUMP JUMPDEST PUSH1 0x1 PUSH1 0x1 PUSH1 0xA0 SHL SUB DUP5 AND PUSH2 0x1801 JUMPI PUSH1 0x40 MLOAD PUSH3 0x461BCD PUSH1 0xE5 SHL DUP2 MSTORE PUSH1 0x4 ADD PUSH2 0x66F SWAP1 PUSH2 0x328D JUMP JUMPDEST CALLER PUSH1 0x0 PUSH2 0x180D DUP6 PUSH2 0x1F33 JUMP JUMPDEST SWAP1 POP PUSH1 0x0 PUSH2 0x181A DUP6 PUSH2 0x1F33 JUMP JUMPDEST SWAP1 POP PUSH2 0x182B DUP4 PUSH1 0x0 DUP10 DUP6 DUP6 DUP10 PUSH2 0x1F7E JUMP JUMPDEST PUSH1 0x0 DUP7 DUP2 MSTORE PUSH1 0x1 PUSH1 0x20 SWAP1 DUP2 MSTORE PUSH1 0x40 DUP1 DUP4 KECCAK256 PUSH1 0x1 PUSH1 0x1 PUSH1 0xA0 SHL SUB DUP12 AND DUP5 MSTORE SWAP1 SWAP2 MSTORE DUP2 KECCAK256 DUP1 SLOAD DUP8 SWAP3 SWAP1 PUSH2 0x185D SWAP1 DUP5 SWAP1 PUSH2 0x3337 JUMP JUMPDEST SWAP1 SWAP2 SSTORE POP POP PUSH1 0x40 DUP1 MLOAD DUP8 DUP2 MSTORE PUSH1 0x20 DUP2 ADD DUP8 SWAP1 MSTORE PUSH1 0x1 PUSH1 0x1 PUSH1 0xA0 SHL SUB DUP1 DUP11 AND SWAP3 PUSH1 0x0 SWAP3 SWAP2 DUP8 AND SWAP2 PUSH32 0xC3D58168C5AE7397731D063D5BBF3D657854427343F4C083240F7AACAA2D0F62 SWAP2 ADD PUSH1 0x40 MLOAD DUP1 SWAP2 SUB SWAP1 LOG4 PUSH2 0x18BD DUP4 PUSH1 0x0 DUP10 DUP10 DUP10 DUP10 PUSH2 0x1FE2 JUMP JUMPDEST POP POP POP POP POP POP POP JUMP JUMPDEST PUSH1 0x60 PUSH1 0x3 DUP1 SLOAD PUSH2 0x18D5 SWAP1 PUSH2 0x33AF JUMP JUMPDEST DUP1 PUSH1 0x1F ADD PUSH1 0x20 DUP1 SWAP2 DIV MUL PUSH1 0x20 ADD PUSH1 0x40 MLOAD SWAP1 DUP2 ADD PUSH1 0x40 MSTORE DUP1 SWAP3 SWAP2 SWAP1 DUP2 DUP2 MSTORE PUSH1 0x20 ADD DUP3 DUP1 SLOAD PUSH2 0x1901 SWAP1 PUSH2 0x33AF JUMP JUMPDEST DUP1 ISZERO PUSH2 0x194E JUMPI DUP1 PUSH1 0x1F LT PUSH2 0x1923 JUMPI PUSH2 0x100 DUP1 DUP4 SLOAD DIV MUL DUP4 MSTORE SWAP2 PUSH1 0x20 ADD SWAP2 PUSH2 0x194E JUMP JUMPDEST DUP3 ADD SWAP2 SWAP1 PUSH1 0x0 MSTORE PUSH1 0x20 PUSH1 0x0 KECCAK256 SWAP1 JUMPDEST DUP2 SLOAD DUP2 MSTORE SWAP1 PUSH1 0x1 ADD SWAP1 PUSH1 0x20 ADD DUP1 DUP4 GT PUSH2 0x1931 JUMPI DUP3 SWAP1 SUB PUSH1 0x1F AND DUP3 ADD SWAP2 JUMPDEST POP POP POP POP POP SWAP1 POP SWAP2 SWAP1 POP JUMP JUMPDEST PUSH1 0x0 PUSH2 0x6EC PUSH2 0x1967 PUSH2 0x214D JUMP JUMPDEST DUP4 PUSH1 0x40 MLOAD PUSH2 0x1901 PUSH1 0xF0 SHL PUSH1 0x20 DUP3 ADD MSTORE PUSH1 0x22 DUP2 ADD DUP4 SWAP1 MSTORE PUSH1 0x42 DUP2 ADD DUP3 SWAP1 MSTORE PUSH1 0x0 SWAP1 PUSH1 0x62 ADD PUSH1 0x40 MLOAD PUSH1 0x20 DUP2 DUP4 SUB SUB DUP2 MSTORE SWAP1 PUSH1 0x40 MSTORE DUP1 MLOAD SWAP1 PUSH1 0x20 ADD KECCAK256 SWAP1 POP SWAP3 SWAP2 POP POP JUMP JUMPDEST PUSH1 0x0 DUP1 PUSH1 0x0 PUSH2 0x19B7 DUP6 DUP6 PUSH2 0x2277 JUMP JUMPDEST SWAP2 POP SWAP2 POP PUSH2 0xCF4 DUP2 PUSH2 0x22E7 JUMP JUMPDEST DUP2 MLOAD DUP4 MLOAD EQ PUSH2 0x19E5 JUMPI PUSH1 0x40 MLOAD PUSH3 0x461BCD PUSH1 0xE5 SHL DUP2 MSTORE PUSH1 0x4 ADD PUSH2 0x66F SWAP1 PUSH2 0x3245 JUMP JUMPDEST PUSH1 0x1 PUSH1 0x1 PUSH1 0xA0 SHL SUB DUP5 AND PUSH2 0x1A0B JUMPI PUSH1 0x40 MLOAD PUSH3 0x461BCD PUSH1 0xE5 SHL DUP2 MSTORE PUSH1 0x4 ADD PUSH2 0x66F SWAP1 PUSH2 0x3181 JUMP JUMPDEST CALLER PUSH2 0x1A1A DUP2 DUP8 DUP8 DUP8 DUP8 DUP8 PUSH2 0x1F7E JUMP JUMPDEST PUSH1 0x0 JUMPDEST DUP5 MLOAD DUP2 LT ISZERO PUSH2 0x1B03 JUMPI PUSH1 0x0 DUP6 DUP3 DUP2 MLOAD DUP2 LT PUSH2 0x1A3A JUMPI PUSH2 0x1A3A PUSH2 0x3457 JUMP JUMPDEST PUSH1 0x20 MUL PUSH1 0x20 ADD ADD MLOAD SWAP1 POP PUSH1 0x0 DUP6 DUP4 DUP2 MLOAD DUP2 LT PUSH2 0x1A58 JUMPI PUSH2 0x1A58 PUSH2 0x3457 JUMP JUMPDEST PUSH1 0x20 SWAP1 DUP2 MUL SWAP2 SWAP1 SWAP2 ADD DUP2 ADD MLOAD PUSH1 0x0 DUP5 DUP2 MSTORE PUSH1 0x1 DUP4 MSTORE PUSH1 0x40 DUP1 DUP3 KECCAK256 PUSH1 0x1 PUSH1 0x1 PUSH1 0xA0 SHL SUB DUP15 AND DUP4 MSTORE SWAP1 SWAP4 MSTORE SWAP2 SWAP1 SWAP2 KECCAK256 SLOAD SWAP1 SWAP2 POP DUP2 DUP2 LT ISZERO PUSH2 0x1AA9 JUMPI PUSH1 0x40 MLOAD PUSH3 0x461BCD PUSH1 0xE5 SHL DUP2 MSTORE PUSH1 0x4 ADD PUSH2 0x66F SWAP1 PUSH2 0x31C6 JUMP JUMPDEST PUSH1 0x0 DUP4 DUP2 MSTORE PUSH1 0x1 PUSH1 0x20 SWAP1 DUP2 MSTORE PUSH1 0x40 DUP1 DUP4 KECCAK256 PUSH1 0x1 PUSH1 0x1 PUSH1 0xA0 SHL SUB DUP15 DUP2 AND DUP6 MSTORE SWAP3 MSTORE DUP1 DUP4 KECCAK256 DUP6 DUP6 SUB SWAP1 SSTORE SWAP1 DUP12 AND DUP3 MSTORE DUP2 KECCAK256 DUP1 SLOAD DUP5 SWAP3 SWAP1 PUSH2 0x1AE8 SWAP1 DUP5 SWAP1 PUSH2 0x3337 JUMP JUMPDEST SWAP3 POP POP DUP2 SWAP1 SSTORE POP POP POP POP DUP1 PUSH2 0x1AFC SWAP1 PUSH2 0x3410 JUMP JUMPDEST SWAP1 POP PUSH2 0x1A1D JUMP JUMPDEST POP DUP5 PUSH1 0x1 PUSH1 0x1 PUSH1 0xA0 SHL SUB AND DUP7 PUSH1 0x1 PUSH1 0x1 PUSH1 0xA0 SHL SUB AND DUP3 PUSH1 0x1 PUSH1 0x1 PUSH1 0xA0 SHL SUB AND PUSH32 0x4A39DC06D4C0DBC64B70AF90FD698A233A518AA5D07E595D983B8C0526C8F7FB DUP8 DUP8 PUSH1 0x40 MLOAD PUSH2 0x1B53 SWAP3 SWAP2 SWAP1 PUSH2 0x3101 JUMP JUMPDEST PUSH1 0x40 MLOAD DUP1 SWAP2 SUB SWAP1 LOG4 PUSH2 0x1197 DUP2 DUP8 DUP8 DUP8 DUP8 DUP8 PUSH2 0x24A2 JUMP JUMPDEST PUSH1 0x6 DUP1 SLOAD PUSH1 0x1 PUSH1 0x1 PUSH1 0xA0 SHL SUB DUP4 DUP2 AND PUSH1 0x1 PUSH1 0x1 PUSH1 0xA0 SHL SUB NOT DUP4 AND DUP2 OR SWAP1 SWAP4 SSTORE PUSH1 0x40 MLOAD SWAP2 AND SWAP2 SWAP1 DUP3 SWAP1 PUSH32 0x8BE0079C531659141344CD1FD0A4F28419497F9722A3DAAFE3B4186F6B6457E0 SWAP1 PUSH1 0x0 SWAP1 LOG3 POP POP JUMP JUMPDEST DUP2 PUSH1 0x1 PUSH1 0x1 PUSH1 0xA0 SHL SUB AND DUP4 PUSH1 0x1 PUSH1 0x1 PUSH1 0xA0 SHL SUB AND EQ ISZERO PUSH2 0x1C2F JUMPI PUSH1 0x40 MLOAD PUSH3 0x461BCD PUSH1 0xE5 SHL DUP2 MSTORE PUSH1 0x20 PUSH1 0x4 DUP3 ADD MSTORE PUSH1 0x29 PUSH1 0x24 DUP3 ADD MSTORE PUSH32 0x455243313135353A2073657474696E6720617070726F76616C20737461747573 PUSH1 0x44 DUP3 ADD MSTORE PUSH9 0x103337B91039B2B633 PUSH1 0xB9 SHL PUSH1 0x64 DUP3 ADD MSTORE PUSH1 0x84 ADD PUSH2 0x66F JUMP JUMPDEST PUSH1 0x1 PUSH1 0x1 PUSH1 0xA0 SHL SUB DUP4 DUP2 AND PUSH1 0x0 DUP2 DUP2 MSTORE PUSH1 0x2 PUSH1 0x20 SWAP1 DUP2 MSTORE PUSH1 0x40 DUP1 DUP4 KECCAK256 SWAP5 DUP8 AND DUP1 DUP5 MSTORE SWAP5 DUP3 MSTORE SWAP2 DUP3 SWAP1 KECCAK256 DUP1 SLOAD PUSH1 0xFF NOT AND DUP7 ISZERO ISZERO SWAP1 DUP2 OR SWAP1 SWAP2 SSTORE SWAP2 MLOAD SWAP2 DUP3 MSTORE PUSH32 0x17307EAB39AB6107E8899845AD3D59BD9653F200F220920489CA2B5937696C31 SWAP2 ADD PUSH1 0x40 MLOAD DUP1 SWAP2 SUB SWAP1 LOG3 POP POP POP JUMP JUMPDEST PUSH1 0x1 PUSH1 0x1 PUSH1 0xA0 SHL SUB DUP5 AND PUSH2 0x1CC2 JUMPI PUSH1 0x40 MLOAD PUSH3 0x461BCD PUSH1 0xE5 SHL DUP2 MSTORE PUSH1 0x4 ADD PUSH2 0x66F SWAP1 PUSH2 0x328D JUMP JUMPDEST DUP2 MLOAD DUP4 MLOAD EQ PUSH2 0x1CE3 JUMPI PUSH1 0x40 MLOAD PUSH3 0x461BCD PUSH1 0xE5 SHL DUP2 MSTORE PUSH1 0x4 ADD PUSH2 0x66F SWAP1 PUSH2 0x3245 JUMP JUMPDEST CALLER PUSH2 0x1CF3 DUP2 PUSH1 0x0 DUP8 DUP8 DUP8 DUP8 PUSH2 0x1F7E JUMP JUMPDEST PUSH1 0x0 JUMPDEST DUP5 MLOAD DUP2 LT ISZERO PUSH2 0x1D8F JUMPI DUP4 DUP2 DUP2 MLOAD DUP2 LT PUSH2 0x1D11 JUMPI PUSH2 0x1D11 PUSH2 0x3457 JUMP JUMPDEST PUSH1 0x20 MUL PUSH1 0x20 ADD ADD MLOAD PUSH1 0x1 PUSH1 0x0 DUP8 DUP5 DUP2 MLOAD DUP2 LT PUSH2 0x1D2F JUMPI PUSH2 0x1D2F PUSH2 0x3457 JUMP JUMPDEST PUSH1 0x20 MUL PUSH1 0x20 ADD ADD MLOAD DUP2 MSTORE PUSH1 0x20 ADD SWAP1 DUP2 MSTORE PUSH1 0x20 ADD PUSH1 0x0 KECCAK256 PUSH1 0x0 DUP9 PUSH1 0x1 PUSH1 0x1 PUSH1 0xA0 SHL SUB AND PUSH1 0x1 PUSH1 0x1 PUSH1 0xA0 SHL SUB AND DUP2 MSTORE PUSH1 0x20 ADD SWAP1 DUP2 MSTORE PUSH1 0x20 ADD PUSH1 0x0 KECCAK256 PUSH1 0x0 DUP3 DUP3 SLOAD PUSH2 0x1D77 SWAP2 SWAP1 PUSH2 0x3337 JUMP JUMPDEST SWAP1 SWAP2 SSTORE POP DUP2 SWAP1 POP PUSH2 0x1D87 DUP2 PUSH2 0x3410 JUMP JUMPDEST SWAP2 POP POP PUSH2 0x1CF6 JUMP JUMPDEST POP DUP5 PUSH1 0x1 PUSH1 0x1 PUSH1 0xA0 SHL SUB AND PUSH1 0x0 PUSH1 0x1 PUSH1 0x1 PUSH1 0xA0 SHL SUB AND DUP3 PUSH1 0x1 PUSH1 0x1 PUSH1 0xA0 SHL SUB AND PUSH32 0x4A39DC06D4C0DBC64B70AF90FD698A233A518AA5D07E595D983B8C0526C8F7FB DUP8 DUP8 PUSH1 0x40 MLOAD PUSH2 0x1DE0 SWAP3 SWAP2 SWAP1 PUSH2 0x3101 JUMP JUMPDEST PUSH1 0x40 MLOAD DUP1 SWAP2 SUB SWAP1 LOG4 PUSH2 0xBCC DUP2 PUSH1 0x0 DUP8 DUP8 DUP8 DUP8 PUSH2 0x24A2 JUMP JUMPDEST PUSH1 0x1 PUSH1 0x1 PUSH1 0xA0 SHL SUB DUP5 AND PUSH2 0x1E1D JUMPI PUSH1 0x40 MLOAD PUSH3 0x461BCD PUSH1 0xE5 SHL DUP2 MSTORE PUSH1 0x4 ADD PUSH2 0x66F SWAP1 PUSH2 0x3181 JUMP JUMPDEST CALLER PUSH1 0x0 PUSH2 0x1E29 DUP6 PUSH2 0x1F33 JUMP JUMPDEST SWAP1 POP PUSH1 0x0 PUSH2 0x1E36 DUP6 PUSH2 0x1F33 JUMP JUMPDEST SWAP1 POP PUSH2 0x1E46 DUP4 DUP10 DUP10 DUP6 DUP6 DUP10 PUSH2 0x1F7E JUMP JUMPDEST PUSH1 0x0 DUP7 DUP2 MSTORE PUSH1 0x1 PUSH1 0x20 SWAP1 DUP2 MSTORE PUSH1 0x40 DUP1 DUP4 KECCAK256 PUSH1 0x1 PUSH1 0x1 PUSH1 0xA0 SHL SUB DUP13 AND DUP5 MSTORE SWAP1 SWAP2 MSTORE SWAP1 KECCAK256 SLOAD DUP6 DUP2 LT ISZERO PUSH2 0x1E89 JUMPI PUSH1 0x40 MLOAD PUSH3 0x461BCD PUSH1 0xE5 SHL DUP2 MSTORE PUSH1 0x4 ADD PUSH2 0x66F SWAP1 PUSH2 0x31C6 JUMP JUMPDEST PUSH1 0x0 DUP8 DUP2 MSTORE PUSH1 0x1 PUSH1 0x20 SWAP1 DUP2 MSTORE PUSH1 0x40 DUP1 DUP4 KECCAK256 PUSH1 0x1 PUSH1 0x1 PUSH1 0xA0 SHL SUB DUP14 DUP2 AND DUP6 MSTORE SWAP3 MSTORE DUP1 DUP4 KECCAK256 DUP10 DUP6 SUB SWAP1 SSTORE SWAP1 DUP11 AND DUP3 MSTORE DUP2 KECCAK256 DUP1 SLOAD DUP9 SWAP3 SWAP1 PUSH2 0x1EC8 SWAP1 DUP5 SWAP1 PUSH2 0x3337 JUMP JUMPDEST SWAP1 SWAP2 SSTORE POP POP PUSH1 0x40 DUP1 MLOAD DUP9 DUP2 MSTORE PUSH1 0x20 DUP2 ADD DUP9 SWAP1 MSTORE PUSH1 0x1 PUSH1 0x1 PUSH1 0xA0 SHL SUB DUP1 DUP12 AND SWAP3 DUP13 DUP3 AND SWAP3 SWAP2 DUP9 AND SWAP2 PUSH32 0xC3D58168C5AE7397731D063D5BBF3D657854427343F4C083240F7AACAA2D0F62 SWAP2 ADD PUSH1 0x40 MLOAD DUP1 SWAP2 SUB SWAP1 LOG4 PUSH2 0x1F28 DUP5 DUP11 DUP11 DUP11 DUP11 DUP11 PUSH2 0x1FE2 JUMP JUMPDEST POP POP POP POP POP POP POP POP POP JUMP JUMPDEST PUSH1 0x40 DUP1 MLOAD PUSH1 0x1 DUP1 DUP3 MSTORE DUP2 DUP4 ADD SWAP1 SWAP3 MSTORE PUSH1 0x60 SWAP2 PUSH1 0x0 SWAP2 SWAP1 PUSH1 0x20 DUP1 DUP4 ADD SWAP1 DUP1 CALLDATASIZE DUP4 CALLDATACOPY ADD SWAP1 POP POP SWAP1 POP DUP3 DUP2 PUSH1 0x0 DUP2 MLOAD DUP2 LT PUSH2 0x1F6D JUMPI PUSH2 0x1F6D PUSH2 0x3457 JUMP JUMPDEST PUSH1 0x20 SWAP1 DUP2 MUL SWAP2 SWAP1 SWAP2 ADD ADD MSTORE SWAP3 SWAP2 POP POP JUMP JUMPDEST PUSH1 0x0 SLOAD PUSH1 0xFF AND ISZERO PUSH2 0x1197 JUMPI PUSH1 0x40 MLOAD PUSH3 0x461BCD PUSH1 0xE5 SHL DUP2 MSTORE PUSH1 0x20 PUSH1 0x4 DUP3 ADD MSTORE PUSH1 0x28 PUSH1 0x24 DUP3 ADD MSTORE PUSH32 0x476F7665726E65644E46543A20746F6B656E207472616E73666572207768696C PUSH1 0x44 DUP3 ADD MSTORE PUSH8 0x19481C185D5CD959 PUSH1 0xC2 SHL PUSH1 0x64 DUP3 ADD MSTORE PUSH1 0x84 ADD PUSH2 0x66F JUMP JUMPDEST PUSH1 0x1 PUSH1 0x1 PUSH1 0xA0 SHL SUB DUP5 AND EXTCODESIZE ISZERO PUSH2 0x1197 JUMPI PUSH1 0x40 MLOAD PUSH4 0xF23A6E61 PUSH1 0xE0 SHL DUP2 MSTORE PUSH1 0x1 PUSH1 0x1 PUSH1 0xA0 SHL SUB DUP6 AND SWAP1 PUSH4 0xF23A6E61 SWAP1 PUSH2 0x2026 SWAP1 DUP10 SWAP1 DUP10 SWAP1 DUP9 SWAP1 DUP9 SWAP1 DUP9 SWAP1 PUSH1 0x4 ADD PUSH2 0x2FFC JUMP JUMPDEST PUSH1 0x20 PUSH1 0x40 MLOAD DUP1 DUP4 SUB DUP2 PUSH1 0x0 DUP8 DUP1 EXTCODESIZE ISZERO DUP1 ISZERO PUSH2 0x2040 JUMPI PUSH1 0x0 DUP1 REVERT JUMPDEST POP GAS CALL SWAP3 POP POP POP DUP1 ISZERO PUSH2 0x2070 JUMPI POP PUSH1 0x40 DUP1 MLOAD PUSH1 0x1F RETURNDATASIZE SWAP1 DUP2 ADD PUSH1 0x1F NOT AND DUP3 ADD SWAP1 SWAP3 MSTORE PUSH2 0x206D SWAP2 DUP2 ADD SWAP1 PUSH2 0x2BF4 JUMP JUMPDEST PUSH1 0x1 JUMPDEST PUSH2 0x211D JUMPI PUSH2 0x207C PUSH2 0x3490 JUMP JUMPDEST DUP1 PUSH4 0x8C379A0 EQ ISZERO PUSH2 0x20B6 JUMPI POP PUSH2 0x2091 PUSH2 0x34AB JUMP JUMPDEST DUP1 PUSH2 0x209C JUMPI POP PUSH2 0x20B8 JUMP JUMPDEST DUP1 PUSH1 0x40 MLOAD PUSH3 0x461BCD PUSH1 0xE5 SHL DUP2 MSTORE PUSH1 0x4 ADD PUSH2 0x66F SWAP2 SWAP1 PUSH2 0x3126 JUMP JUMPDEST POP JUMPDEST PUSH1 0x40 MLOAD PUSH3 0x461BCD PUSH1 0xE5 SHL DUP2 MSTORE PUSH1 0x20 PUSH1 0x4 DUP3 ADD MSTORE PUSH1 0x34 PUSH1 0x24 DUP3 ADD MSTORE PUSH32 0x455243313135353A207472616E7366657220746F206E6F6E2045524331313535 PUSH1 0x44 DUP3 ADD MSTORE PUSH20 0x2932B1B2B4BB32B91034B6B83632B6B2B73A32B9 PUSH1 0x61 SHL PUSH1 0x64 DUP3 ADD MSTORE PUSH1 0x84 ADD PUSH2 0x66F JUMP JUMPDEST PUSH1 0x1 PUSH1 0x1 PUSH1 0xE0 SHL SUB NOT DUP2 AND PUSH4 0xF23A6E61 PUSH1 0xE0 SHL EQ PUSH2 0x18BD JUMPI PUSH1 0x40 MLOAD PUSH3 0x461BCD PUSH1 0xE5 SHL DUP2 MSTORE PUSH1 0x4 ADD PUSH2 0x66F SWAP1 PUSH2 0x3139 JUMP JUMPDEST PUSH1 0x0 ADDRESS PUSH1 0x1 PUSH1 0x1 PUSH1 0xA0 SHL SUB PUSH32 0x0 AND EQ DUP1 ISZERO PUSH2 0x21A6 JUMPI POP PUSH32 0x0 CHAINID EQ JUMPDEST ISZERO PUSH2 0x21D0 JUMPI POP PUSH32 0x0 SWAP1 JUMP JUMPDEST POP PUSH1 0x40 DUP1 MLOAD PUSH32 0x0 PUSH1 0x20 DUP1 DUP4 ADD SWAP2 SWAP1 SWAP2 MSTORE PUSH32 0x0 DUP3 DUP5 ADD MSTORE PUSH32 0x0 PUSH1 0x60 DUP4 ADD MSTORE CHAINID PUSH1 0x80 DUP4 ADD MSTORE ADDRESS PUSH1 0xA0 DUP1 DUP5 ADD SWAP2 SWAP1 SWAP2 MSTORE DUP4 MLOAD DUP1 DUP5 SUB SWAP1 SWAP2 ADD DUP2 MSTORE PUSH1 0xC0 SWAP1 SWAP3 ADD SWAP1 SWAP3 MSTORE DUP1 MLOAD SWAP2 ADD KECCAK256 SWAP1 JUMP JUMPDEST SWAP1 JUMP JUMPDEST PUSH1 0x0 DUP1 DUP3 MLOAD PUSH1 0x41 EQ ISZERO PUSH2 0x22AE JUMPI PUSH1 0x20 DUP4 ADD MLOAD PUSH1 0x40 DUP5 ADD MLOAD PUSH1 0x60 DUP6 ADD MLOAD PUSH1 0x0 BYTE PUSH2 0x22A2 DUP8 DUP3 DUP6 DUP6 PUSH2 0x256C JUMP JUMPDEST SWAP5 POP SWAP5 POP POP POP POP PUSH2 0x22E0 JUMP JUMPDEST DUP3 MLOAD PUSH1 0x40 EQ ISZERO PUSH2 0x22D8 JUMPI PUSH1 0x20 DUP4 ADD MLOAD PUSH1 0x40 DUP5 ADD MLOAD PUSH2 0x22CD DUP7 DUP4 DUP4 PUSH2 0x2659 JUMP JUMPDEST SWAP4 POP SWAP4 POP POP POP PUSH2 0x22E0 JUMP JUMPDEST POP PUSH1 0x0 SWAP1 POP PUSH1 0x2 JUMPDEST SWAP3 POP SWAP3 SWAP1 POP JUMP JUMPDEST PUSH1 0x0 DUP2 PUSH1 0x4 DUP2 GT ISZERO PUSH2 0x22FB JUMPI PUSH2 0x22FB PUSH2 0x3441 JUMP JUMPDEST EQ ISZERO PUSH2 0x2304 JUMPI POP JUMP JUMPDEST PUSH1 0x1 DUP2 PUSH1 0x4 DUP2 GT ISZERO PUSH2 0x2318 JUMPI PUSH2 0x2318 PUSH2 0x3441 JUMP JUMPDEST EQ ISZERO PUSH2 0x2366 JUMPI PUSH1 0x40 MLOAD PUSH3 0x461BCD PUSH1 0xE5 SHL DUP2 MSTORE PUSH1 0x20 PUSH1 0x4 DUP3 ADD MSTORE PUSH1 0x18 PUSH1 0x24 DUP3 ADD MSTORE PUSH32 0x45434453413A20696E76616C6964207369676E61747572650000000000000000 PUSH1 0x44 DUP3 ADD MSTORE PUSH1 0x64 ADD PUSH2 0x66F JUMP JUMPDEST PUSH1 0x2 DUP2 PUSH1 0x4 DUP2 GT ISZERO PUSH2 0x237A JUMPI PUSH2 0x237A PUSH2 0x3441 JUMP JUMPDEST EQ ISZERO PUSH2 0x23C8 JUMPI PUSH1 0x40 MLOAD PUSH3 0x461BCD PUSH1 0xE5 SHL DUP2 MSTORE PUSH1 0x20 PUSH1 0x4 DUP3 ADD MSTORE PUSH1 0x1F PUSH1 0x24 DUP3 ADD MSTORE PUSH32 0x45434453413A20696E76616C6964207369676E6174757265206C656E67746800 PUSH1 0x44 DUP3 ADD MSTORE PUSH1 0x64 ADD PUSH2 0x66F JUMP JUMPDEST PUSH1 0x3 DUP2 PUSH1 0x4 DUP2 GT ISZERO PUSH2 0x23DC JUMPI PUSH2 0x23DC PUSH2 0x3441 JUMP JUMPDEST EQ ISZERO PUSH2 0x2435 JUMPI PUSH1 0x40 MLOAD PUSH3 0x461BCD PUSH1 0xE5 SHL DUP2 MSTORE PUSH1 0x20 PUSH1 0x4 DUP3 ADD MSTORE PUSH1 0x22 PUSH1 0x24 DUP3 ADD MSTORE PUSH32 0x45434453413A20696E76616C6964207369676E6174757265202773272076616C PUSH1 0x44 DUP3 ADD MSTORE PUSH2 0x7565 PUSH1 0xF0 SHL PUSH1 0x64 DUP3 ADD MSTORE PUSH1 0x84 ADD PUSH2 0x66F JUMP JUMPDEST PUSH1 0x4 DUP2 PUSH1 0x4 DUP2 GT ISZERO PUSH2 0x2449 JUMPI PUSH2 0x2449 PUSH2 0x3441 JUMP JUMPDEST EQ ISZERO PUSH2 0x17D8 JUMPI PUSH1 0x40 MLOAD PUSH3 0x461BCD PUSH1 0xE5 SHL DUP2 MSTORE PUSH1 0x20 PUSH1 0x4 DUP3 ADD MSTORE PUSH1 0x22 PUSH1 0x24 DUP3 ADD MSTORE PUSH32 0x45434453413A20696E76616C6964207369676E6174757265202776272076616C PUSH1 0x44 DUP3 ADD MSTORE PUSH2 0x7565 PUSH1 0xF0 SHL PUSH1 0x64 DUP3 ADD MSTORE PUSH1 0x84 ADD PUSH2 0x66F JUMP JUMPDEST PUSH1 0x1 PUSH1 0x1 PUSH1 0xA0 SHL SUB DUP5 AND EXTCODESIZE ISZERO PUSH2 0x1197 JUMPI PUSH1 0x40 MLOAD PUSH4 0xBC197C81 PUSH1 0xE0 SHL DUP2 MSTORE PUSH1 0x1 PUSH1 0x1 PUSH1 0xA0 SHL SUB DUP6 AND SWAP1 PUSH4 0xBC197C81 SWAP1 PUSH2 0x24E6 SWAP1 DUP10 SWAP1 DUP10 SWAP1 DUP9 SWAP1 DUP9 SWAP1 DUP9 SWAP1 PUSH1 0x4 ADD PUSH2 0x2F9E JUMP JUMPDEST PUSH1 0x20 PUSH1 0x40 MLOAD DUP1 DUP4 SUB DUP2 PUSH1 0x0 DUP8 DUP1 EXTCODESIZE ISZERO DUP1 ISZERO PUSH2 0x2500 JUMPI PUSH1 0x0 DUP1 REVERT JUMPDEST POP GAS CALL SWAP3 POP POP POP DUP1 ISZERO PUSH2 0x2530 JUMPI POP PUSH1 0x40 DUP1 MLOAD PUSH1 0x1F RETURNDATASIZE SWAP1 DUP2 ADD PUSH1 0x1F NOT AND DUP3 ADD SWAP1 SWAP3 MSTORE PUSH2 0x252D SWAP2 DUP2 ADD SWAP1 PUSH2 0x2BF4 JUMP JUMPDEST PUSH1 0x1 JUMPDEST PUSH2 0x253C JUMPI PUSH2 0x207C PUSH2 0x3490 JUMP JUMPDEST PUSH1 0x1 PUSH1 0x1 PUSH1 0xE0 SHL SUB NOT DUP2 AND PUSH4 0xBC197C81 PUSH1 0xE0 SHL EQ PUSH2 0x18BD JUMPI PUSH1 0x40 MLOAD PUSH3 0x461BCD PUSH1 0xE5 SHL DUP2 MSTORE PUSH1 0x4 ADD PUSH2 0x66F SWAP1 PUSH2 0x3139 JUMP JUMPDEST PUSH1 0x0 DUP1 PUSH32 0x7FFFFFFFFFFFFFFFFFFFFFFFFFFFFFFF5D576E7357A4501DDFE92F46681B20A0 DUP4 GT ISZERO PUSH2 0x25A3 JUMPI POP PUSH1 0x0 SWAP1 POP PUSH1 0x3 PUSH2 0x2650 JUMP JUMPDEST DUP5 PUSH1 0xFF AND PUSH1 0x1B EQ ISZERO DUP1 ISZERO PUSH2 0x25BB JUMPI POP DUP5 PUSH1 0xFF AND PUSH1 0x1C EQ ISZERO JUMPDEST ISZERO PUSH2 0x25CC JUMPI POP PUSH1 0x0 SWAP1 POP PUSH1 0x4 PUSH2 0x2650 JUMP JUMPDEST PUSH1 0x40 DUP1 MLOAD PUSH1 0x0 DUP1 DUP3 MSTORE PUSH1 0x20 DUP3 ADD DUP1 DUP5 MSTORE DUP10 SWAP1 MSTORE PUSH1 0xFF DUP9 AND SWAP3 DUP3 ADD SWAP3 SWAP1 SWAP3 MSTORE PUSH1 0x60 DUP2 ADD DUP7 SWAP1 MSTORE PUSH1 0x80 DUP2 ADD DUP6 SWAP1 MSTORE PUSH1 0x1 SWAP1 PUSH1 0xA0 ADD PUSH1 0x20 PUSH1 0x40 MLOAD PUSH1 0x20 DUP2 SUB SWAP1 DUP1 DUP5 SUB SWAP1 DUP6 GAS STATICCALL ISZERO DUP1 ISZERO PUSH2 0x2620 JUMPI RETURNDATASIZE PUSH1 0x0 DUP1 RETURNDATACOPY RETURNDATASIZE PUSH1 0x0 REVERT JUMPDEST POP POP PUSH1 0x40 MLOAD PUSH1 0x1F NOT ADD MLOAD SWAP2 POP POP PUSH1 0x1 PUSH1 0x1 PUSH1 0xA0 SHL SUB DUP2 AND PUSH2 0x2649 JUMPI PUSH1 0x0 PUSH1 0x1 SWAP3 POP SWAP3 POP POP PUSH2 0x2650 JUMP JUMPDEST SWAP2 POP PUSH1 0x0 SWAP1 POP JUMPDEST SWAP5 POP SWAP5 SWAP3 POP POP POP JUMP JUMPDEST PUSH1 0x0 DUP1 PUSH1 0x1 PUSH1 0x1 PUSH1 0xFF SHL SUB DUP4 AND DUP2 PUSH2 0x2676 PUSH1 0xFF DUP7 SWAP1 SHR PUSH1 0x1B PUSH2 0x3337 JUMP JUMPDEST SWAP1 POP PUSH2 0x2684 DUP8 DUP3 DUP9 DUP6 PUSH2 0x256C JUMP JUMPDEST SWAP4 POP SWAP4 POP POP POP SWAP4 POP SWAP4 SWAP2 POP POP JUMP JUMPDEST DUP3 DUP1 SLOAD PUSH2 0x269E SWAP1 PUSH2 0x33AF JUMP JUMPDEST SWAP1 PUSH1 0x0 MSTORE PUSH1 0x20 PUSH1 0x0 KECCAK256 SWAP1 PUSH1 0x1F ADD PUSH1 0x20 SWAP1 DIV DUP2 ADD SWAP3 DUP3 PUSH2 0x26C0 JUMPI PUSH1 0x0 DUP6 SSTORE PUSH2 0x2706 JUMP JUMPDEST DUP3 PUSH1 0x1F LT PUSH2 0x26D9 JUMPI DUP1 MLOAD PUSH1 0xFF NOT AND DUP4 DUP1 ADD OR DUP6 SSTORE PUSH2 0x2706 JUMP JUMPDEST DUP3 DUP1 ADD PUSH1 0x1 ADD DUP6 SSTORE DUP3 ISZERO PUSH2 0x2706 JUMPI SWAP2 DUP3 ADD JUMPDEST DUP3 DUP2 GT ISZERO PUSH2 0x2706 JUMPI DUP3 MLOAD DUP3 SSTORE SWAP2 PUSH1 0x20 ADD SWAP2 SWAP1 PUSH1 0x1 ADD SWAP1 PUSH2 0x26EB JUMP JUMPDEST POP PUSH2 0x2712 SWAP3 SWAP2 POP PUSH2 0x2716 JUMP JUMPDEST POP SWAP1 JUMP JUMPDEST JUMPDEST DUP1 DUP3 GT ISZERO PUSH2 0x2712 JUMPI PUSH1 0x0 DUP2 SSTORE PUSH1 0x1 ADD PUSH2 0x2717 JUMP JUMPDEST DUP1 CALLDATALOAD PUSH1 0x1 PUSH1 0x1 PUSH1 0xA0 SHL SUB DUP2 AND DUP2 EQ PUSH2 0x15AD JUMPI PUSH1 0x0 DUP1 REVERT JUMPDEST PUSH1 0x0 DUP3 PUSH1 0x1F DUP4 ADD SLT PUSH2 0x2753 JUMPI PUSH1 0x0 DUP1 REVERT JUMPDEST DUP2 CALLDATALOAD PUSH1 0x20 PUSH2 0x2760 DUP3 PUSH2 0x3314 JUMP JUMPDEST PUSH1 0x40 MLOAD PUSH2 0x276D DUP3 DUP3 PUSH2 0x33E4 JUMP JUMPDEST DUP4 DUP2 MSTORE DUP3 DUP2 ADD SWAP2 POP DUP6 DUP4 ADD PUSH1 0x5 DUP6 SWAP1 SHL DUP8 ADD DUP5 ADD DUP9 LT ISZERO PUSH2 0x278D JUMPI PUSH1 0x0 DUP1 REVERT JUMPDEST PUSH1 0x0 JUMPDEST DUP6 DUP2 LT ISZERO PUSH2 0x27AC JUMPI DUP2 CALLDATALOAD DUP5 MSTORE SWAP3 DUP5 ADD SWAP3 SWAP1 DUP5 ADD SWAP1 PUSH1 0x1 ADD PUSH2 0x2790 JUMP JUMPDEST POP SWAP1 SWAP8 SWAP7 POP POP POP POP POP POP POP JUMP JUMPDEST PUSH1 0x0 DUP1 DUP4 PUSH1 0x1F DUP5 ADD SLT PUSH2 0x27CB JUMPI PUSH1 0x0 DUP1 REVERT JUMPDEST POP DUP2 CALLDATALOAD PUSH1 0x1 PUSH1 0x1 PUSH1 0x40 SHL SUB DUP2 GT ISZERO PUSH2 0x27E2 JUMPI PUSH1 0x0 DUP1 REVERT JUMPDEST PUSH1 0x20 DUP4 ADD SWAP2 POP DUP4 PUSH1 0x20 DUP3 DUP6 ADD ADD GT ISZERO PUSH2 0x22E0 JUMPI PUSH1 0x0 DUP1 REVERT JUMPDEST PUSH1 0x0 DUP3 PUSH1 0x1F DUP4 ADD SLT PUSH2 0x280B JUMPI PUSH1 0x0 DUP1 REVERT JUMPDEST DUP2 CALLDATALOAD PUSH1 0x1 PUSH1 0x1 PUSH1 0x40 SHL SUB DUP2 GT ISZERO PUSH2 0x2824 JUMPI PUSH2 0x2824 PUSH2 0x346D JUMP JUMPDEST PUSH1 0x40 MLOAD PUSH2 0x283B PUSH1 0x1F DUP4 ADD PUSH1 0x1F NOT AND PUSH1 0x20 ADD DUP3 PUSH2 0x33E4 JUMP JUMPDEST DUP2 DUP2 MSTORE DUP5 PUSH1 0x20 DUP4 DUP7 ADD ADD GT ISZERO PUSH2 0x2850 JUMPI PUSH1 0x0 DUP1 REVERT JUMPDEST DUP2 PUSH1 0x20 DUP6 ADD PUSH1 0x20 DUP4 ADD CALLDATACOPY PUSH1 0x0 SWAP2 DUP2 ADD PUSH1 0x20 ADD SWAP2 SWAP1 SWAP2 MSTORE SWAP4 SWAP3 POP POP POP JUMP JUMPDEST PUSH1 0x0 PUSH1 0x60 DUP3 DUP5 SUB SLT ISZERO PUSH2 0x287F JUMPI PUSH1 0x0 DUP1 REVERT JUMPDEST POP SWAP2 SWAP1 POP JUMP JUMPDEST PUSH1 0x0 PUSH1 0x20 DUP3 DUP5 SUB SLT ISZERO PUSH2 0x2897 JUMPI PUSH1 0x0 DUP1 REVERT JUMPDEST PUSH2 0x817 DUP3 PUSH2 0x272B JUMP JUMPDEST PUSH1 0x0 DUP1 PUSH1 0x40 DUP4 DUP6 SUB SLT ISZERO PUSH2 0x28B3 JUMPI PUSH1 0x0 DUP1 REVERT JUMPDEST PUSH2 0x28BC DUP4 PUSH2 0x272B JUMP JUMPDEST SWAP2 POP PUSH2 0x28CA PUSH1 0x20 DUP5 ADD PUSH2 0x272B JUMP JUMPDEST SWAP1 POP SWAP3 POP SWAP3 SWAP1 POP JUMP JUMPDEST PUSH1 0x0 DUP1 PUSH1 0x0 DUP1 PUSH1 0x0 PUSH1 0xA0 DUP7 DUP9 SUB SLT ISZERO PUSH2 0x28EB JUMPI PUSH1 0x0 DUP1 REVERT JUMPDEST PUSH2 0x28F4 DUP7 PUSH2 0x272B JUMP JUMPDEST SWAP5 POP PUSH2 0x2902 PUSH1 0x20 DUP8 ADD PUSH2 0x272B JUMP JUMPDEST SWAP4 POP PUSH1 0x40 DUP7 ADD CALLDATALOAD PUSH1 0x1 PUSH1 0x1 PUSH1 0x40 SHL SUB DUP1 DUP3 GT ISZERO PUSH2 0x291E JUMPI PUSH1 0x0 DUP1 REVERT JUMPDEST PUSH2 0x292A DUP10 DUP4 DUP11 ADD PUSH2 0x2742 JUMP JUMPDEST SWAP5 POP PUSH1 0x60 DUP9 ADD CALLDATALOAD SWAP2 POP DUP1 DUP3 GT ISZERO PUSH2 0x2940 JUMPI PUSH1 0x0 DUP1 REVERT JUMPDEST PUSH2 0x294C DUP10 DUP4 DUP11 ADD PUSH2 0x2742 JUMP JUMPDEST SWAP4 POP PUSH1 0x80 DUP9 ADD CALLDATALOAD SWAP2 POP DUP1 DUP3 GT ISZERO PUSH2 0x2962 JUMPI PUSH1 0x0 DUP1 REVERT JUMPDEST POP PUSH2 0x296F DUP9 DUP3 DUP10 ADD PUSH2 0x27FA JUMP JUMPDEST SWAP2 POP POP SWAP3 SWAP6 POP SWAP3 SWAP6 SWAP1 SWAP4 POP JUMP JUMPDEST PUSH1 0x0 DUP1 PUSH1 0x0 DUP1 PUSH1 0x0 PUSH1 0xA0 DUP7 DUP9 SUB SLT ISZERO PUSH2 0x2994 JUMPI PUSH1 0x0 DUP1 REVERT JUMPDEST PUSH2 0x299D DUP7 PUSH2 0x272B JUMP JUMPDEST SWAP5 POP PUSH2 0x29AB PUSH1 0x20 DUP8 ADD PUSH2 0x272B JUMP JUMPDEST SWAP4 POP PUSH1 0x40 DUP7 ADD CALLDATALOAD SWAP3 POP PUSH1 0x60 DUP7 ADD CALLDATALOAD SWAP2 POP PUSH1 0x80 DUP7 ADD CALLDATALOAD PUSH1 0x1 PUSH1 0x1 PUSH1 0x40 SHL SUB DUP2 GT ISZERO PUSH2 0x29D4 JUMPI PUSH1 0x0 DUP1 REVERT JUMPDEST PUSH2 0x296F DUP9 DUP3 DUP10 ADD PUSH2 0x27FA JUMP JUMPDEST PUSH1 0x0 DUP1 PUSH1 0x40 DUP4 DUP6 SUB SLT ISZERO PUSH2 0x29F3 JUMPI PUSH1 0x0 DUP1 REVERT JUMPDEST PUSH2 0x29FC DUP4 PUSH2 0x272B JUMP JUMPDEST SWAP2 POP PUSH1 0x20 DUP4 ADD CALLDATALOAD DUP1 ISZERO ISZERO DUP2 EQ PUSH2 0x2A11 JUMPI PUSH1 0x0 DUP1 REVERT JUMPDEST DUP1 SWAP2 POP POP SWAP3 POP SWAP3 SWAP1 POP JUMP JUMPDEST PUSH1 0x0 DUP1 PUSH1 0x40 DUP4 DUP6 SUB SLT ISZERO PUSH2 0x2A2F JUMPI PUSH1 0x0 DUP1 REVERT JUMPDEST PUSH2 0x2A38 DUP4 PUSH2 0x272B JUMP JUMPDEST SWAP5 PUSH1 0x20 SWAP4 SWAP1 SWAP4 ADD CALLDATALOAD SWAP4 POP POP POP JUMP JUMPDEST PUSH1 0x0 DUP1 PUSH1 0x40 DUP4 DUP6 SUB SLT ISZERO PUSH2 0x2A59 JUMPI PUSH1 0x0 DUP1 REVERT JUMPDEST DUP3 CALLDATALOAD PUSH1 0x1 PUSH1 0x1 PUSH1 0x40 SHL SUB DUP1 DUP3 GT ISZERO PUSH2 0x2A70 JUMPI PUSH1 0x0 DUP1 REVERT JUMPDEST DUP2 DUP6 ADD SWAP2 POP DUP6 PUSH1 0x1F DUP4 ADD SLT PUSH2 0x2A84 JUMPI PUSH1 0x0 DUP1 REVERT JUMPDEST DUP2 CALLDATALOAD PUSH1 0x20 PUSH2 0x2A91 DUP3 PUSH2 0x3314 JUMP JUMPDEST PUSH1 0x40 MLOAD PUSH2 0x2A9E DUP3 DUP3 PUSH2 0x33E4 JUMP JUMPDEST DUP4 DUP2 MSTORE DUP3 DUP2 ADD SWAP2 POP DUP6 DUP4 ADD PUSH1 0x5 DUP6 SWAP1 SHL DUP8 ADD DUP5 ADD DUP12 LT ISZERO PUSH2 0x2ABE JUMPI PUSH1 0x0 DUP1 REVERT JUMPDEST PUSH1 0x0 SWAP7 POP JUMPDEST DUP5 DUP8 LT ISZERO PUSH2 0x2AE8 JUMPI PUSH2 0x2AD4 DUP2 PUSH2 0x272B JUMP JUMPDEST DUP4 MSTORE PUSH1 0x1 SWAP7 SWAP1 SWAP7 ADD SWAP6 SWAP2 DUP4 ADD SWAP2 DUP4 ADD PUSH2 0x2AC3 JUMP JUMPDEST POP SWAP7 POP POP DUP7 ADD CALLDATALOAD SWAP3 POP POP DUP1 DUP3 GT ISZERO PUSH2 0x2AFF JUMPI PUSH1 0x0 DUP1 REVERT JUMPDEST POP PUSH2 0x2B0C DUP6 DUP3 DUP7 ADD PUSH2 0x2742 JUMP JUMPDEST SWAP2 POP POP SWAP3 POP SWAP3 SWAP1 POP JUMP JUMPDEST PUSH1 0x0 DUP1 PUSH1 0x0 PUSH1 0x60 DUP5 DUP7 SUB SLT ISZERO PUSH2 0x2B2B JUMPI PUSH1 0x0 DUP1 REVERT JUMPDEST DUP4 CALLDATALOAD PUSH1 0x1 PUSH1 0x1 PUSH1 0x40 SHL SUB DUP1 DUP3 GT ISZERO PUSH2 0x2B42 JUMPI PUSH1 0x0 DUP1 REVERT JUMPDEST PUSH2 0x2B4E DUP8 DUP4 DUP9 ADD PUSH2 0x2742 JUMP JUMPDEST SWAP5 POP PUSH1 0x20 DUP7 ADD CALLDATALOAD SWAP2 POP DUP1 DUP3 GT ISZERO PUSH2 0x2B64 JUMPI PUSH1 0x0 DUP1 REVERT JUMPDEST PUSH2 0x2B70 DUP8 DUP4 DUP9 ADD PUSH2 0x2742 JUMP JUMPDEST SWAP4 POP PUSH1 0x40 DUP7 ADD CALLDATALOAD SWAP2 POP DUP1 DUP3 GT ISZERO PUSH2 0x2B86 JUMPI PUSH1 0x0 DUP1 REVERT JUMPDEST POP PUSH2 0x2B93 DUP7 DUP3 DUP8 ADD PUSH2 0x27FA JUMP JUMPDEST SWAP2 POP POP SWAP3 POP SWAP3 POP SWAP3 JUMP JUMPDEST PUSH1 0x0 PUSH1 0x20 DUP3 DUP5 SUB SLT ISZERO PUSH2 0x2BAF JUMPI PUSH1 0x0 DUP1 REVERT JUMPDEST DUP2 CALLDATALOAD PUSH2 0x817 DUP2 PUSH2 0x3629 JUMP JUMPDEST PUSH1 0x0 PUSH1 0x20 DUP3 DUP5 SUB SLT ISZERO PUSH2 0x2BCC JUMPI PUSH1 0x0 DUP1 REVERT JUMPDEST DUP2 CALLDATALOAD PUSH2 0x817 DUP2 PUSH2 0x363F JUMP JUMPDEST PUSH1 0x0 PUSH1 0x20 DUP3 DUP5 SUB SLT ISZERO PUSH2 0x2BE9 JUMPI PUSH1 0x0 DUP1 REVERT JUMPDEST DUP2 CALLDATALOAD PUSH2 0x817 DUP2 PUSH2 0x3655 JUMP JUMPDEST PUSH1 0x0 PUSH1 0x20 DUP3 DUP5 SUB SLT ISZERO PUSH2 0x2C06 JUMPI PUSH1 0x0 DUP1 REVERT JUMPDEST DUP2 MLOAD PUSH2 0x817 DUP2 PUSH2 0x3655 JUMP JUMPDEST PUSH1 0x0 DUP1 PUSH1 0x0 PUSH1 0x40 DUP5 DUP7 SUB SLT ISZERO PUSH2 0x2C26 JUMPI PUSH1 0x0 DUP1 REVERT JUMPDEST DUP4 CALLDATALOAD PUSH1 0x1 PUSH1 0x1 PUSH1 0x40 SHL SUB DUP1 DUP3 GT ISZERO PUSH2 0x2C3D JUMPI PUSH1 0x0 DUP1 REVERT JUMPDEST PUSH2 0x2C49 DUP8 DUP4 DUP9 ADD PUSH2 0x286D JUMP JUMPDEST SWAP5 POP PUSH1 0x20 DUP7 ADD CALLDATALOAD SWAP2 POP DUP1 DUP3 GT ISZERO PUSH2 0x2C5F JUMPI PUSH1 0x0 DUP1 REVERT JUMPDEST POP PUSH2 0x2C6C DUP7 DUP3 DUP8 ADD PUSH2 0x27B9 JUMP JUMPDEST SWAP5 SWAP8 SWAP1 SWAP7 POP SWAP4 SWAP5 POP POP POP POP JUMP JUMPDEST PUSH1 0x0 DUP1 PUSH1 0x0 DUP1 PUSH1 0x0 PUSH1 0x60 DUP7 DUP9 SUB SLT ISZERO PUSH2 0x2C91 JUMPI PUSH1 0x0 DUP1 REVERT JUMPDEST DUP6 CALLDATALOAD PUSH1 0x1 PUSH1 0x1 PUSH1 0x40 SHL SUB DUP1 DUP3 GT ISZERO PUSH2 0x2CA8 JUMPI PUSH1 0x0 DUP1 REVERT JUMPDEST PUSH2 0x2CB4 DUP10 DUP4 DUP11 ADD PUSH2 0x286D JUMP JUMPDEST SWAP7 POP PUSH1 0x20 DUP9 ADD CALLDATALOAD SWAP2 POP DUP1 DUP3 GT ISZERO PUSH2 0x2CCA JUMPI PUSH1 0x0 DUP1 REVERT JUMPDEST PUSH2 0x2CD6 DUP10 DUP4 DUP11 ADD PUSH2 0x27B9 JUMP JUMPDEST SWAP1 SWAP7 POP SWAP5 POP PUSH1 0x40 DUP9 ADD CALLDATALOAD SWAP2 POP DUP1 DUP3 GT ISZERO PUSH2 0x2CEF JUMPI PUSH1 0x0 DUP1 REVERT JUMPDEST DUP2 DUP9 ADD SWAP2 POP DUP9 PUSH1 0x1F DUP4 ADD SLT PUSH2 0x2D03 JUMPI PUSH1 0x0 DUP1 REVERT JUMPDEST DUP2 CALLDATALOAD DUP2 DUP2 GT ISZERO PUSH2 0x2D12 JUMPI PUSH1 0x0 DUP1 REVERT JUMPDEST DUP10 PUSH1 0x20 DUP3 PUSH1 0x5 SHL DUP6 ADD ADD GT ISZERO PUSH2 0x2D27 JUMPI PUSH1 0x0 DUP1 REVERT JUMPDEST SWAP7 SWAP10 SWAP6 SWAP9 POP SWAP4 SWAP7 POP PUSH1 0x20 ADD SWAP5 SWAP4 SWAP3 POP POP POP JUMP JUMPDEST PUSH1 0x0 PUSH1 0x20 DUP3 DUP5 SUB SLT ISZERO PUSH2 0x2D4C JUMPI PUSH1 0x0 DUP1 REVERT JUMPDEST DUP2 CALLDATALOAD PUSH2 0x817 DUP2 PUSH2 0x366B JUMP JUMPDEST PUSH1 0x0 DUP1 PUSH1 0x0 PUSH1 0x60 DUP5 DUP7 SUB SLT ISZERO PUSH2 0x2D6C JUMPI PUSH1 0x0 DUP1 REVERT JUMPDEST DUP4 CALLDATALOAD PUSH2 0x2D77 DUP2 PUSH2 0x366B JUMP JUMPDEST SWAP6 PUSH1 0x20 DUP6 ADD CALLDATALOAD SWAP6 POP PUSH1 0x40 SWAP1 SWAP5 ADD CALLDATALOAD SWAP4 SWAP3 POP POP POP JUMP JUMPDEST PUSH1 0x0 PUSH1 0x20 DUP3 DUP5 SUB SLT ISZERO PUSH2 0x2D9E JUMPI PUSH1 0x0 DUP1 REVERT JUMPDEST POP CALLDATALOAD SWAP2 SWAP1 POP JUMP JUMPDEST PUSH1 0x0 DUP1 PUSH1 0x40 DUP4 DUP6 SUB SLT ISZERO PUSH2 0x2DB8 JUMPI PUSH1 0x0 DUP1 REVERT JUMPDEST DUP3 CALLDATALOAD SWAP2 POP PUSH1 0x20 DUP4 ADD CALLDATALOAD PUSH2 0x2A11 DUP2 PUSH2 0x3629 JUMP JUMPDEST PUSH1 0x0 DUP1 DUP3 DUP5 SUB PUSH1 0xE0 DUP2 SLT ISZERO PUSH2 0x2DDE JUMPI PUSH1 0x0 DUP1 REVERT JUMPDEST DUP4 CALLDATALOAD SWAP3 POP PUSH1 0xC0 PUSH1 0x1F NOT DUP3 ADD SLT ISZERO PUSH2 0x2DF4 JUMPI PUSH1 0x0 DUP1 REVERT JUMPDEST POP PUSH1 0x20 DUP4 ADD SWAP1 POP SWAP3 POP SWAP3 SWAP1 POP JUMP JUMPDEST PUSH1 0x0 DUP1 PUSH1 0x0 PUSH1 0x60 DUP5 DUP7 SUB SLT ISZERO PUSH2 0x2E17 JUMPI PUSH1 0x0 DUP1 REVERT JUMPDEST DUP4 CALLDATALOAD SWAP3 POP PUSH1 0x20 DUP5 ADD CALLDATALOAD SWAP2 POP PUSH1 0x40 DUP5 ADD CALLDATALOAD PUSH1 0x1 PUSH1 0x1 PUSH1 0x40 SHL SUB DUP2 GT ISZERO PUSH2 0x2E3B JUMPI PUSH1 0x0 DUP1 REVERT JUMPDEST PUSH2 0x2B93 DUP7 DUP3 DUP8 ADD PUSH2 0x27FA JUMP JUMPDEST PUSH1 0x0 PUSH1 0x20 DUP3 DUP5 SUB SLT ISZERO PUSH2 0x2E59 JUMPI PUSH1 0x0 DUP1 REVERT JUMPDEST DUP2 CALLDATALOAD PUSH2 0x817 DUP2 PUSH2 0x3680 JUMP JUMPDEST PUSH1 0x0 DUP2 MLOAD DUP1 DUP5 MSTORE PUSH1 0x20 DUP1 DUP6 ADD SWAP5 POP DUP1 DUP5 ADD PUSH1 0x0 JUMPDEST DUP4 DUP2 LT ISZERO PUSH2 0x2E94 JUMPI DUP2 MLOAD DUP8 MSTORE SWAP6 DUP3 ADD SWAP6 SWAP1 DUP3 ADD SWAP1 PUSH1 0x1 ADD PUSH2 0x2E78 JUMP JUMPDEST POP SWAP5 SWAP6 SWAP5 POP POP POP POP POP JUMP JUMPDEST PUSH1 0x0 DUP2 MLOAD DUP1 DUP5 MSTORE PUSH2 0x2EB7 DUP2 PUSH1 0x20 DUP7 ADD PUSH1 0x20 DUP7 ADD PUSH2 0x337F JUMP JUMPDEST PUSH1 0x1F ADD PUSH1 0x1F NOT AND SWAP3 SWAP1 SWAP3 ADD PUSH1 0x20 ADD SWAP3 SWAP2 POP POP JUMP JUMPDEST PUSH1 0x0 DUP2 MLOAD PUSH2 0x2EDD DUP2 DUP6 PUSH1 0x20 DUP7 ADD PUSH2 0x337F JUMP JUMPDEST SWAP3 SWAP1 SWAP3 ADD SWAP3 SWAP2 POP POP JUMP JUMPDEST DUP2 DUP4 DUP3 CALLDATACOPY PUSH1 0x0 SWAP2 ADD SWAP1 DUP2 MSTORE SWAP2 SWAP1 POP JUMP JUMPDEST PUSH1 0x0 DUP1 DUP5 SLOAD DUP2 PUSH1 0x1 DUP3 DUP2 SHR SWAP2 POP DUP1 DUP4 AND DUP1 PUSH2 0x2F13 JUMPI PUSH1 0x7F DUP4 AND SWAP3 POP JUMPDEST PUSH1 0x20 DUP1 DUP5 LT DUP3 EQ ISZERO PUSH2 0x2F33 JUMPI PUSH4 0x4E487B71 PUSH1 0xE0 SHL DUP7 MSTORE PUSH1 0x22 PUSH1 0x4 MSTORE PUSH1 0x24 DUP7 REVERT JUMPDEST DUP2 DUP1 ISZERO PUSH2 0x2F47 JUMPI PUSH1 0x1 DUP2 EQ PUSH2 0x2F58 JUMPI PUSH2 0x2F85 JUMP JUMPDEST PUSH1 0xFF NOT DUP7 AND DUP10 MSTORE DUP5 DUP10 ADD SWAP7 POP PUSH2 0x2F85 JUMP JUMPDEST PUSH1 0x0 DUP12 DUP2 MSTORE PUSH1 0x20 SWAP1 KECCAK256 PUSH1 0x0 JUMPDEST DUP7 DUP2 LT ISZERO PUSH2 0x2F7D JUMPI DUP2 SLOAD DUP12 DUP3 ADD MSTORE SWAP1 DUP6 ADD SWAP1 DUP4 ADD PUSH2 0x2F64 JUMP JUMPDEST POP POP DUP5 DUP10 ADD SWAP7 POP JUMPDEST POP POP POP POP POP POP PUSH2 0x2F95 DUP2 DUP6 PUSH2 0x2ECB JUMP JUMPDEST SWAP6 SWAP5 POP POP POP POP POP JUMP JUMPDEST PUSH1 0x1 PUSH1 0x1 PUSH1 0xA0 SHL SUB DUP7 DUP2 AND DUP3 MSTORE DUP6 AND PUSH1 0x20 DUP3 ADD MSTORE PUSH1 0xA0 PUSH1 0x40 DUP3 ADD DUP2 SWAP1 MSTORE PUSH1 0x0 SWAP1 PUSH2 0x2FCA SWAP1 DUP4 ADD DUP7 PUSH2 0x2E64 JUMP JUMPDEST DUP3 DUP2 SUB PUSH1 0x60 DUP5 ADD MSTORE PUSH2 0x2FDC DUP2 DUP7 PUSH2 0x2E64 JUMP JUMPDEST SWAP1 POP DUP3 DUP2 SUB PUSH1 0x80 DUP5 ADD MSTORE PUSH2 0x2FF0 DUP2 DUP6 PUSH2 0x2E9F JUMP JUMPDEST SWAP9 SWAP8 POP POP POP POP POP POP POP POP JUMP JUMPDEST PUSH1 0x1 PUSH1 0x1 PUSH1 0xA0 SHL SUB DUP7 DUP2 AND DUP3 MSTORE DUP6 AND PUSH1 0x20 DUP3 ADD MSTORE PUSH1 0x40 DUP2 ADD DUP5 SWAP1 MSTORE PUSH1 0x60 DUP2 ADD DUP4 SWAP1 MSTORE PUSH1 0xA0 PUSH1 0x80 DUP3 ADD DUP2 SWAP1 MSTORE PUSH1 0x0 SWAP1 PUSH2 0x3036 SWAP1 DUP4 ADD DUP5 PUSH2 0x2E9F JUMP JUMPDEST SWAP8 SWAP7 POP POP POP POP POP POP POP JUMP JUMPDEST PUSH1 0x0 PUSH1 0x20 DUP1 DUP4 ADD DUP2 DUP5 MSTORE DUP1 DUP6 MLOAD DUP1 DUP4 MSTORE PUSH1 0x40 SWAP3 POP DUP3 DUP7 ADD SWAP2 POP DUP3 DUP2 PUSH1 0x5 SHL DUP8 ADD ADD DUP5 DUP9 ADD PUSH1 0x0 JUMPDEST DUP4 DUP2 LT ISZERO PUSH2 0x30E0 JUMPI DUP9 DUP4 SUB PUSH1 0x3F NOT ADD DUP6 MSTORE DUP2 MLOAD DUP1 MLOAD PUSH1 0x1 PUSH1 0x1 PUSH1 0xA0 SHL SUB AND DUP5 MSTORE DUP8 DUP2 ADD MLOAD DUP9 DUP6 ADD MSTORE DUP7 DUP2 ADD MLOAD PUSH1 0x1 PUSH1 0x1 PUSH1 0x80 SHL SUB NOT AND DUP8 DUP6 ADD MSTORE PUSH1 0x60 DUP1 DUP3 ADD MLOAD PUSH1 0xA0 DUP3 DUP8 ADD DUP2 SWAP1 MSTORE SWAP2 SWAP1 PUSH2 0x30BE DUP4 DUP9 ADD DUP3 PUSH2 0x2E9F JUMP JUMPDEST PUSH1 0x80 SWAP5 DUP6 ADD MLOAD SWAP8 SWAP1 SWAP5 ADD SWAP7 SWAP1 SWAP7 MSTORE POP POP SWAP5 DUP8 ADD SWAP5 SWAP3 POP SWAP1 DUP7 ADD SWAP1 PUSH1 0x1 ADD PUSH2 0x3068 JUMP JUMPDEST POP SWAP1 SWAP9 SWAP8 POP POP POP POP POP POP POP POP JUMP JUMPDEST PUSH1 0x20 DUP2 MSTORE PUSH1 0x0 PUSH2 0x817 PUSH1 0x20 DUP4 ADD DUP5 PUSH2 0x2E64 JUMP JUMPDEST PUSH1 0x40 DUP2 MSTORE PUSH1 0x0 PUSH2 0x3114 PUSH1 0x40 DUP4 ADD DUP6 PUSH2 0x2E64 JUMP JUMPDEST DUP3 DUP2 SUB PUSH1 0x20 DUP5 ADD MSTORE PUSH2 0x2F95 DUP2 DUP6 PUSH2 0x2E64 JUMP JUMPDEST PUSH1 0x20 DUP2 MSTORE PUSH1 0x0 PUSH2 0x817 PUSH1 0x20 DUP4 ADD DUP5 PUSH2 0x2E9F JUMP JUMPDEST PUSH1 0x20 DUP1 DUP3 MSTORE PUSH1 0x28 SWAP1 DUP3 ADD MSTORE PUSH32 0x455243313135353A204552433131353552656365697665722072656A65637465 PUSH1 0x40 DUP3 ADD MSTORE PUSH8 0x6420746F6B656E73 PUSH1 0xC0 SHL PUSH1 0x60 DUP3 ADD MSTORE PUSH1 0x80 ADD SWAP1 JUMP JUMPDEST PUSH1 0x20 DUP1 DUP3 MSTORE PUSH1 0x25 SWAP1 DUP3 ADD MSTORE PUSH32 0x455243313135353A207472616E7366657220746F20746865207A65726F206164 PUSH1 0x40 DUP3 ADD MSTORE PUSH5 0x6472657373 PUSH1 0xD8 SHL PUSH1 0x60 DUP3 ADD MSTORE PUSH1 0x80 ADD SWAP1 JUMP JUMPDEST PUSH1 0x20 DUP1 DUP3 MSTORE PUSH1 0x2A SWAP1 DUP3 ADD MSTORE PUSH32 0x455243313135353A20696E73756666696369656E742062616C616E636520666F PUSH1 0x40 DUP3 ADD MSTORE PUSH10 0x39103A3930B739B332B9 PUSH1 0xB1 SHL PUSH1 0x60 DUP3 ADD MSTORE PUSH1 0x80 ADD SWAP1 JUMP JUMPDEST PUSH1 0x20 DUP1 DUP3 MSTORE DUP2 DUP2 ADD MSTORE PUSH32 0x4F776E61626C653A2063616C6C6572206973206E6F7420746865206F776E6572 PUSH1 0x40 DUP3 ADD MSTORE PUSH1 0x60 ADD SWAP1 JUMP JUMPDEST PUSH1 0x20 DUP1 DUP3 MSTORE PUSH1 0x28 SWAP1 DUP3 ADD MSTORE PUSH32 0x455243313135353A2069647320616E6420616D6F756E7473206C656E67746820 PUSH1 0x40 DUP3 ADD MSTORE PUSH8 0xDAD2E6DAC2E8C6D PUSH1 0xC3 SHL PUSH1 0x60 DUP3 ADD MSTORE PUSH1 0x80 ADD SWAP1 JUMP JUMPDEST PUSH1 0x20 DUP1 DUP3 MSTORE PUSH1 0x21 SWAP1 DUP3 ADD MSTORE PUSH32 0x455243313135353A206D696E7420746F20746865207A65726F20616464726573 PUSH1 0x40 DUP3 ADD MSTORE PUSH1 0x73 PUSH1 0xF8 SHL PUSH1 0x60 DUP3 ADD MSTORE PUSH1 0x80 ADD SWAP1 JUMP JUMPDEST PUSH1 0x0 DUP1 DUP4 CALLDATALOAD PUSH1 0x1E NOT DUP5 CALLDATASIZE SUB ADD DUP2 SLT PUSH2 0x32E5 JUMPI PUSH1 0x0 DUP1 REVERT JUMPDEST DUP4 ADD DUP1 CALLDATALOAD SWAP2 POP PUSH1 0x1 PUSH1 0x1 PUSH1 0x40 SHL SUB DUP3 GT ISZERO PUSH2 0x32FF JUMPI PUSH1 0x0 DUP1 REVERT JUMPDEST PUSH1 0x20 ADD SWAP2 POP CALLDATASIZE DUP2 SWAP1 SUB DUP3 SGT ISZERO PUSH2 0x22E0 JUMPI PUSH1 0x0 DUP1 REVERT JUMPDEST PUSH1 0x0 PUSH1 0x1 PUSH1 0x1 PUSH1 0x40 SHL SUB DUP3 GT ISZERO PUSH2 0x332D JUMPI PUSH2 0x332D PUSH2 0x346D JUMP JUMPDEST POP PUSH1 0x5 SHL PUSH1 0x20 ADD SWAP1 JUMP JUMPDEST PUSH1 0x0 DUP3 NOT DUP3 GT ISZERO PUSH2 0x334A JUMPI PUSH2 0x334A PUSH2 0x342B JUMP JUMPDEST POP ADD SWAP1 JUMP JUMPDEST PUSH1 0x1 PUSH1 0x1 PUSH1 0x80 SHL SUB NOT DUP2 CALLDATALOAD DUP2 DUP2 AND SWAP2 PUSH1 0x10 DUP6 LT ISZERO PUSH2 0x3377 JUMPI DUP1 DUP2 DUP7 PUSH1 0x10 SUB PUSH1 0x3 SHL SHL DUP4 AND AND SWAP3 POP JUMPDEST POP POP SWAP3 SWAP2 POP POP JUMP JUMPDEST PUSH1 0x0 JUMPDEST DUP4 DUP2 LT ISZERO PUSH2 0x339A JUMPI DUP2 DUP2 ADD MLOAD DUP4 DUP3 ADD MSTORE PUSH1 0x20 ADD PUSH2 0x3382 JUMP JUMPDEST DUP4 DUP2 GT ISZERO PUSH2 0x33A9 JUMPI PUSH1 0x0 DUP5 DUP5 ADD MSTORE JUMPDEST POP POP POP POP JUMP JUMPDEST PUSH1 0x1 DUP2 DUP2 SHR SWAP1 DUP3 AND DUP1 PUSH2 0x33C3 JUMPI PUSH1 0x7F DUP3 AND SWAP2 POP JUMPDEST PUSH1 0x20 DUP3 LT DUP2 EQ ISZERO PUSH2 0x287F JUMPI PUSH4 0x4E487B71 PUSH1 0xE0 SHL PUSH1 0x0 MSTORE PUSH1 0x22 PUSH1 0x4 MSTORE PUSH1 0x24 PUSH1 0x0 REVERT JUMPDEST PUSH1 0x1F DUP3 ADD PUSH1 0x1F NOT AND DUP2 ADD PUSH1 0x1 PUSH1 0x1 PUSH1 0x40 SHL SUB DUP2 GT DUP3 DUP3 LT OR ISZERO PUSH2 0x3409 JUMPI PUSH2 0x3409 PUSH2 0x346D JUMP JUMPDEST PUSH1 0x40 MSTORE POP POP JUMP JUMPDEST PUSH1 0x0 PUSH1 0x0 NOT DUP3 EQ ISZERO PUSH2 0x3424 JUMPI PUSH2 0x3424 PUSH2 0x342B JUMP JUMPDEST POP PUSH1 0x1 ADD SWAP1 JUMP JUMPDEST PUSH4 0x4E487B71 PUSH1 0xE0 SHL PUSH1 0x0 MSTORE PUSH1 0x11 PUSH1 0x4 MSTORE PUSH1 0x24 PUSH1 0x0 REVERT JUMPDEST PUSH4 0x4E487B71 PUSH1 0xE0 SHL PUSH1 0x0 MSTORE PUSH1 0x21 PUSH1 0x4 MSTORE PUSH1 0x24 PUSH1 0x0 REVERT JUMPDEST PUSH4 0x4E487B71 PUSH1 0xE0 SHL PUSH1 0x0 MSTORE PUSH1 0x32 PUSH1 0x4 MSTORE PUSH1 0x24 PUSH1 0x0 REVERT JUMPDEST PUSH4 0x4E487B71 PUSH1 0xE0 SHL PUSH1 0x0 MSTORE PUSH1 0x41 PUSH1 0x4 MSTORE PUSH1 0x24 PUSH1 0x0 REVERT JUMPDEST PUSH1 0x0 DUP2 CALLDATALOAD PUSH2 0x6EC DUP2 PUSH2 0x3629 JUMP JUMPDEST PUSH1 0x0 PUSH1 0x3 RETURNDATASIZE GT ISZERO PUSH2 0x2274 JUMPI PUSH1 0x4 PUSH1 0x0 DUP1 RETURNDATACOPY POP PUSH1 0x0 MLOAD PUSH1 0xE0 SHR SWAP1 JUMP JUMPDEST PUSH1 0x0 PUSH1 0x44 RETURNDATASIZE LT ISZERO PUSH2 0x34B9 JUMPI SWAP1 JUMP JUMPDEST PUSH1 0x40 MLOAD PUSH1 0x3 NOT RETURNDATASIZE DUP2 ADD PUSH1 0x4 DUP4 RETURNDATACOPY DUP2 MLOAD RETURNDATASIZE PUSH1 0x1 PUSH1 0x1 PUSH1 0x40 SHL SUB DUP2 PUSH1 0x24 DUP5 ADD GT DUP2 DUP5 GT OR ISZERO PUSH2 0x34E8 JUMPI POP POP POP POP POP SWAP1 JUMP JUMPDEST DUP3 DUP6 ADD SWAP2 POP DUP2 MLOAD DUP2 DUP2 GT ISZERO PUSH2 0x3500 JUMPI POP POP POP POP POP POP SWAP1 JUMP JUMPDEST DUP5 RETURNDATASIZE DUP8 ADD ADD PUSH1 0x20 DUP3 DUP6 ADD ADD GT ISZERO PUSH2 0x351A JUMPI POP POP POP POP POP POP SWAP1 JUMP JUMPDEST PUSH2 0x3529 PUSH1 0x20 DUP3 DUP7 ADD ADD DUP8 PUSH2 0x33E4 JUMP JUMPDEST POP SWAP1 SWAP6 SWAP5 POP POP POP POP POP JUMP JUMPDEST DUP2 CALLDATALOAD DUP2 SSTORE PUSH1 0x1 DUP2 ADD PUSH1 0x20 DUP4 ADD CALLDATALOAD PUSH2 0x354A DUP2 PUSH2 0x366B JUMP JUMPDEST PUSH1 0x1 PUSH1 0x1 PUSH1 0x80 SHL SUB DUP2 AND SWAP1 POP DUP2 SLOAD DUP2 PUSH1 0x1 PUSH1 0x1 PUSH1 0x80 SHL SUB NOT DUP3 AND OR DUP4 SSTORE PUSH1 0x40 DUP6 ADD CALLDATALOAD PUSH2 0x3575 DUP2 PUSH2 0x3680 JUMP JUMPDEST PUSH1 0xFF PUSH1 0x80 SHL PUSH1 0x80 SWAP2 SWAP1 SWAP2 SHL AND PUSH17 0xFFFFFFFFFFFFFFFFFFFFFFFFFFFFFFFFFF NOT DUP3 AND DUP4 OR DUP2 OR DUP5 SSTORE PUSH1 0x60 DUP7 ADD CALLDATALOAD PUSH2 0x35AA DUP2 PUSH2 0x363F JUMP JUMPDEST PUSH1 0x1 PUSH1 0x1 PUSH1 0xA0 SHL SUB NOT SWAP3 SWAP1 SWAP3 AND SWAP1 SWAP3 OR SWAP2 SWAP1 SWAP2 OR PUSH1 0x60 SWAP2 SWAP1 SWAP2 SHR PUSH3 0xFFFFFF PUSH1 0x88 SHL AND OR DUP2 SSTORE PUSH2 0x35FC PUSH2 0x35DE PUSH1 0x80 DUP6 ADD PUSH2 0x3483 JUMP JUMPDEST DUP3 DUP1 SLOAD PUSH1 0xFF PUSH1 0xA0 SHL NOT AND PUSH1 0x58 SWAP3 SWAP1 SWAP3 SHR PUSH1 0xFF PUSH1 0xA0 SHL AND SWAP2 SWAP1 SWAP2 OR SWAP1 SSTORE JUMP JUMPDEST PUSH2 0x739 PUSH2 0x360B PUSH1 0xA0 DUP6 ADD PUSH2 0x3483 JUMP JUMPDEST DUP3 DUP1 SLOAD PUSH1 0xFF PUSH1 0xA8 SHL NOT AND PUSH1 0x50 SWAP3 SWAP1 SWAP3 SHR PUSH1 0xFF PUSH1 0xA8 SHL AND SWAP2 SWAP1 SWAP2 OR SWAP1 SSTORE JUMP JUMPDEST PUSH1 0x1 PUSH1 0x1 PUSH1 0xF8 SHL SUB NOT DUP2 AND DUP2 EQ PUSH2 0x17D8 JUMPI PUSH1 0x0 DUP1 REVERT JUMPDEST PUSH1 0x1 PUSH1 0x1 PUSH1 0xE8 SHL SUB NOT DUP2 AND DUP2 EQ PUSH2 0x17D8 JUMPI PUSH1 0x0 DUP1 REVERT JUMPDEST PUSH1 0x1 PUSH1 0x1 PUSH1 0xE0 SHL SUB NOT DUP2 AND DUP2 EQ PUSH2 0x17D8 JUMPI PUSH1 0x0 DUP1 REVERT JUMPDEST PUSH1 0x1 PUSH1 0x1 PUSH1 0x80 SHL SUB DUP2 AND DUP2 EQ PUSH2 0x17D8 JUMPI PUSH1 0x0 DUP1 REVERT JUMPDEST PUSH1 0xFF DUP2 AND DUP2 EQ PUSH2 0x17D8 JUMPI PUSH1 0x0 DUP1 REVERT INVALID LOG2 PUSH5 0x6970667358 0x22 SLT KECCAK256 SAR 0xFC OR DUP3 0xF8 0xDB DUP13 0xBA 0xBA LOG3 0x23 0xC0 0x25 REVERT PUSH19 0x99421233F816230487BD0C85B6FA25D50D6473 PUSH16 0x6C634300080700330000000000000000 "
		},
		"gasEstimates": {
			"creation": {
				"codeDepositCost": "2804200",
				"executionCost": "infinite",
				"totalCost": "infinite"
			},
			"external": {
				"balanceOf(address,uint256)": "2698",
				"balanceOfBatch(address[],uint256[])": "infinite",
				"getSale(uint256)": "7512",
				"getVote()": "6617",
				"getVotes(uint128)": "infinite",
				"hasVoted(address)": "4808",
				"isAllowed(address)": "2685",
				"isApprovedForAll(address,address)": "infinite",
				"mint(uint256,uint256,bytes)": "infinite",
				"mintBatch(uint256[],uint256[],bytes)": "infinite",
				"owner()": "2346",
				"paused()": "2415",
				"renounceOwnership()": "28250",
				"revoke(address)": "26773",
				"safeBatchTransferFrom(address,address,uint256[],uint256[],bytes)": "infinite",
				"safeTransferFrom(address,address,uint256,uint256,bytes)": "infinite",
				"saleRecord(uint256,(bytes32,uint128,uint8,bytes3,bytes1,bytes1))": "infinite",
				"saleUpdate(uint256,bytes1)": "30835",
				"setApprovalForAll(address,bool)": "26775",
				"setVote(uint128,uint256,uint256)": "71080",
				"supportsInterface(bytes4)": "567",
				"transferOwnership(address)": "28422",
				"uri(uint256)": "infinite",
				"verify((address,uint128,bytes),bytes)": "infinite",
				"vote((address,uint128,bytes),bytes,uint256[])": "infinite"
			},
			"internal": {
				"_beforeTokenTransfer(address,address,address,uint256[] memory,uint256[] memory,bytes memory)": "infinite"
			}
		},
		"methodIdentifiers": {
			"balanceOf(address,uint256)": "00fdd58e",
			"balanceOfBatch(address[],uint256[])": "4e1273f4",
			"getSale(uint256)": "d8f6d596",
			"getVote()": "0242f351",
			"getVotes(uint128)": "b98f25d3",
			"hasVoted(address)": "09eef43e",
			"isAllowed(address)": "babcc539",
			"isApprovedForAll(address,address)": "e985e9c5",
			"mint(uint256,uint256,bytes)": "08dc9f42",
			"mintBatch(uint256[],uint256[],bytes)": "bb4351e8",
			"owner()": "8da5cb5b",
			"paused()": "5c975abb",
			"renounceOwnership()": "715018a6",
			"revoke(address)": "74a8f103",
			"safeBatchTransferFrom(address,address,uint256[],uint256[],bytes)": "2eb2c2d6",
			"safeTransferFrom(address,address,uint256,uint256,bytes)": "f242432a",
			"saleRecord(uint256,(bytes32,uint128,uint8,bytes3,bytes1,bytes1))": "ecd1617a",
			"saleUpdate(uint256,bytes1)": "4ec5d27e",
			"setApprovalForAll(address,bool)": "a22cb465",
			"setVote(uint128,uint256,uint256)": "d2ddf529",
			"supportsInterface(bytes4)": "01ffc9a7",
			"transferOwnership(address)": "f2fde38b",
			"uri(uint256)": "0e89341c",
			"verify((address,uint128,bytes),bytes)": "14ce6538",
			"vote((address,uint128,bytes),bytes,uint256[])": "9fb049aa"
		}
	},
	"abi": [
		{
			"inputs": [
				{
					"internalType": "string",
					"name": "uri_",
					"type": "string"
				}
			],
			"stateMutability": "nonpayable",
			"type": "constructor"
		},
		{
			"anonymous": false,
			"inputs": [
				{
					"indexed": true,
					"internalType": "address",
					"name": "account",
					"type": "address"
				},
				{
					"indexed": true,
					"internalType": "address",
					"name": "operator",
					"type": "address"
				},
				{
					"indexed": false,
					"internalType": "bool",
					"name": "approved",
					"type": "bool"
				}
			],
			"name": "ApprovalForAll",
			"type": "event"
		},
		{
			"anonymous": false,
			"inputs": [
				{
					"indexed": true,
					"internalType": "address",
					"name": "who",
					"type": "address"
				},
				{
					"indexed": true,
					"internalType": "uint256",
					"name": "tokenId",
					"type": "uint256"
				}
			],
			"name": "HasVoted",
			"type": "event"
		},
		{
			"anonymous": false,
			"inputs": [
				{
					"indexed": true,
					"internalType": "address",
					"name": "previousOwner",
					"type": "address"
				},
				{
					"indexed": true,
					"internalType": "address",
					"name": "newOwner",
					"type": "address"
				}
			],
			"name": "OwnershipTransferred",
			"type": "event"
		},
		{
			"anonymous": false,
			"inputs": [
				{
					"indexed": false,
					"internalType": "address",
					"name": "account",
					"type": "address"
				}
			],
			"name": "Paused",
			"type": "event"
		},
		{
			"anonymous": false,
			"inputs": [
				{
					"indexed": false,
					"internalType": "address",
					"name": "",
					"type": "address"
				},
				{
					"indexed": false,
					"internalType": "uint256",
					"name": "",
					"type": "uint256"
				}
			],
			"name": "ReceivedEth",
			"type": "event"
		},
		{
			"anonymous": false,
			"inputs": [
				{
					"indexed": true,
					"internalType": "uint256",
					"name": "tokenId",
					"type": "uint256"
				},
				{
					"indexed": true,
					"internalType": "bytes32",
					"name": "buyer",
					"type": "bytes32"
				},
				{
					"indexed": false,
					"internalType": "uint128",
					"name": "price",
					"type": "uint128"
				},
				{
					"indexed": false,
					"internalType": "uint8",
					"name": "decimals",
					"type": "uint8"
				},
				{
					"indexed": false,
					"internalType": "bytes3",
					"name": "currency",
					"type": "bytes3"
				},
				{
					"indexed": false,
					"internalType": "bytes1",
					"name": "network",
					"type": "bytes1"
				},
				{
					"indexed": false,
					"internalType": "bytes1",
					"name": "status",
					"type": "bytes1"
				}
			],
			"name": "Sale",
			"type": "event"
		},
		{
			"anonymous": false,
			"inputs": [
				{
					"indexed": true,
					"internalType": "uint256",
					"name": "tokenId",
					"type": "uint256"
				},
				{
					"indexed": true,
					"internalType": "bytes32",
					"name": "buyer",
					"type": "bytes32"
				},
				{
					"indexed": false,
					"internalType": "bytes1",
					"name": "status",
					"type": "bytes1"
				}
			],
			"name": "SaleUpdate",
			"type": "event"
		},
		{
			"anonymous": false,
			"inputs": [
				{
					"indexed": true,
					"internalType": "address",
					"name": "operator",
					"type": "address"
				},
				{
					"indexed": true,
					"internalType": "address",
					"name": "from",
					"type": "address"
				},
				{
					"indexed": true,
					"internalType": "address",
					"name": "to",
					"type": "address"
				},
				{
					"indexed": false,
					"internalType": "uint256[]",
					"name": "ids",
					"type": "uint256[]"
				},
				{
					"indexed": false,
					"internalType": "uint256[]",
					"name": "values",
					"type": "uint256[]"
				}
			],
			"name": "TransferBatch",
			"type": "event"
		},
		{
			"anonymous": false,
			"inputs": [
				{
					"indexed": true,
					"internalType": "address",
					"name": "operator",
					"type": "address"
				},
				{
					"indexed": true,
					"internalType": "address",
					"name": "from",
					"type": "address"
				},
				{
					"indexed": true,
					"internalType": "address",
					"name": "to",
					"type": "address"
				},
				{
					"indexed": false,
					"internalType": "uint256",
					"name": "id",
					"type": "uint256"
				},
				{
					"indexed": false,
					"internalType": "uint256",
					"name": "value",
					"type": "uint256"
				}
			],
			"name": "TransferSingle",
			"type": "event"
		},
		{
			"anonymous": false,
			"inputs": [
				{
					"indexed": false,
					"internalType": "string",
					"name": "value",
					"type": "string"
				},
				{
					"indexed": true,
					"internalType": "uint256",
					"name": "id",
					"type": "uint256"
				}
			],
			"name": "URI",
			"type": "event"
		},
		{
			"anonymous": false,
			"inputs": [
				{
					"indexed": false,
					"internalType": "address",
					"name": "account",
					"type": "address"
				}
			],
			"name": "Unpaused",
			"type": "event"
		},
		{
			"inputs": [
				{
					"internalType": "address",
					"name": "account",
					"type": "address"
				},
				{
					"internalType": "uint256",
					"name": "id",
					"type": "uint256"
				}
			],
			"name": "balanceOf",
			"outputs": [
				{
					"internalType": "uint256",
					"name": "",
					"type": "uint256"
				}
			],
			"stateMutability": "view",
			"type": "function"
		},
		{
			"inputs": [
				{
					"internalType": "address[]",
					"name": "accounts",
					"type": "address[]"
				},
				{
					"internalType": "uint256[]",
					"name": "ids",
					"type": "uint256[]"
				}
			],
			"name": "balanceOfBatch",
			"outputs": [
				{
					"internalType": "uint256[]",
					"name": "",
					"type": "uint256[]"
				}
			],
			"stateMutability": "view",
			"type": "function"
		},
		{
			"inputs": [
				{
					"internalType": "uint256",
					"name": "tokenId_",
					"type": "uint256"
				}
			],
			"name": "getSale",
			"outputs": [
				{
					"components": [
						{
							"internalType": "bytes32",
							"name": "buyer",
							"type": "bytes32"
						},
						{
							"internalType": "uint128",
							"name": "price",
							"type": "uint128"
						},
						{
							"internalType": "uint8",
							"name": "decimals",
							"type": "uint8"
						},
						{
							"internalType": "bytes3",
							"name": "currency",
							"type": "bytes3"
						},
						{
							"internalType": "bytes1",
							"name": "network",
							"type": "bytes1"
						},
						{
							"internalType": "bytes1",
							"name": "status",
							"type": "bytes1"
						}
					],
					"internalType": "struct GovernedNFT.SaleRecord",
					"name": "",
					"type": "tuple"
				}
			],
			"stateMutability": "view",
			"type": "function"
		},
		{
			"inputs": [],
			"name": "getVote",
			"outputs": [
				{
					"internalType": "uint128",
					"name": "",
					"type": "uint128"
				},
				{
					"internalType": "uint256",
					"name": "",
					"type": "uint256"
				},
				{
					"internalType": "uint256",
					"name": "",
					"type": "uint256"
				}
			],
			"stateMutability": "view",
			"type": "function"
		},
		{
			"inputs": [
				{
					"internalType": "uint128",
					"name": "voteId",
					"type": "uint128"
				}
			],
			"name": "getVotes",
			"outputs": [
				{
					"components": [
						{
							"internalType": "address",
							"name": "from",
							"type": "address"
						},
						{
							"internalType": "uint256",
							"name": "tokenId",
							"type": "uint256"
						},
						{
							"internalType": "bytes16",
							"name": "data",
							"type": "bytes16"
						},
						{
							"internalType": "bytes",
							"name": "signature",
							"type": "bytes"
						},
						{
							"internalType": "uint256",
							"name": "timestamp",
							"type": "uint256"
						}
					],
					"internalType": "struct GovernedNFT.Ballot[]",
					"name": "",
					"type": "tuple[]"
				}
			],
			"stateMutability": "view",
			"type": "function"
		},
		{
			"inputs": [
				{
					"internalType": "address",
					"name": "who",
					"type": "address"
				}
			],
			"name": "hasVoted",
			"outputs": [
				{
					"internalType": "bool",
					"name": "",
					"type": "bool"
				}
			],
			"stateMutability": "view",
			"type": "function"
		},
		{
			"inputs": [
				{
					"internalType": "address",
					"name": "who",
					"type": "address"
				}
			],
			"name": "isAllowed",
			"outputs": [
				{
					"internalType": "bool",
					"name": "",
					"type": "bool"
				}
			],
			"stateMutability": "view",
			"type": "function"
		},
		{
			"inputs": [
				{
					"internalType": "address",
					"name": "account",
					"type": "address"
				},
				{
					"internalType": "address",
					"name": "operator",
					"type": "address"
				}
			],
			"name": "isApprovedForAll",
			"outputs": [
				{
					"internalType": "bool",
					"name": "",
					"type": "bool"
				}
			],
			"stateMutability": "view",
			"type": "function"
		},
		{
			"inputs": [
				{
					"internalType": "uint256",
					"name": "id",
					"type": "uint256"
				},
				{
					"internalType": "uint256",
					"name": "amount",
					"type": "uint256"
				},
				{
					"internalType": "bytes",
					"name": "data",
					"type": "bytes"
				}
			],
			"name": "mint",
			"outputs": [],
			"stateMutability": "nonpayable",
			"type": "function"
		},
		{
			"inputs": [
				{
					"internalType": "uint256[]",
					"name": "ids",
					"type": "uint256[]"
				},
				{
					"internalType": "uint256[]",
					"name": "amounts",
					"type": "uint256[]"
				},
				{
					"internalType": "bytes",
					"name": "data",
					"type": "bytes"
				}
			],
			"name": "mintBatch",
			"outputs": [],
			"stateMutability": "nonpayable",
			"type": "function"
		},
		{
			"inputs": [],
			"name": "owner",
			"outputs": [
				{
					"internalType": "address",
					"name": "",
					"type": "address"
				}
			],
			"stateMutability": "view",
			"type": "function"
		},
		{
			"inputs": [],
			"name": "paused",
			"outputs": [
				{
					"internalType": "bool",
					"name": "",
					"type": "bool"
				}
			],
			"stateMutability": "view",
			"type": "function"
		},
		{
			"inputs": [],
			"name": "renounceOwnership",
			"outputs": [],
			"stateMutability": "nonpayable",
			"type": "function"
		},
		{
			"inputs": [
				{
					"internalType": "address",
					"name": "voter",
					"type": "address"
				}
			],
			"name": "revoke",
			"outputs": [],
			"stateMutability": "nonpayable",
			"type": "function"
		},
		{
			"inputs": [
				{
					"internalType": "address",
					"name": "from",
					"type": "address"
				},
				{
					"internalType": "address",
					"name": "to",
					"type": "address"
				},
				{
					"internalType": "uint256[]",
					"name": "ids",
					"type": "uint256[]"
				},
				{
					"internalType": "uint256[]",
					"name": "amounts",
					"type": "uint256[]"
				},
				{
					"internalType": "bytes",
					"name": "data",
					"type": "bytes"
				}
			],
			"name": "safeBatchTransferFrom",
			"outputs": [],
			"stateMutability": "nonpayable",
			"type": "function"
		},
		{
			"inputs": [
				{
					"internalType": "address",
					"name": "from",
					"type": "address"
				},
				{
					"internalType": "address",
					"name": "to",
					"type": "address"
				},
				{
					"internalType": "uint256",
					"name": "id",
					"type": "uint256"
				},
				{
					"internalType": "uint256",
					"name": "amount",
					"type": "uint256"
				},
				{
					"internalType": "bytes",
					"name": "data",
					"type": "bytes"
				}
			],
			"name": "safeTransferFrom",
			"outputs": [],
			"stateMutability": "nonpayable",
			"type": "function"
		},
		{
			"inputs": [
				{
					"internalType": "uint256",
					"name": "tokenId_",
					"type": "uint256"
				},
				{
					"components": [
						{
							"internalType": "bytes32",
							"name": "buyer",
							"type": "bytes32"
						},
						{
							"internalType": "uint128",
							"name": "price",
							"type": "uint128"
						},
						{
							"internalType": "uint8",
							"name": "decimals",
							"type": "uint8"
						},
						{
							"internalType": "bytes3",
							"name": "currency",
							"type": "bytes3"
						},
						{
							"internalType": "bytes1",
							"name": "network",
							"type": "bytes1"
						},
						{
							"internalType": "bytes1",
							"name": "status",
							"type": "bytes1"
						}
					],
					"internalType": "struct GovernedNFT.SaleRecord",
					"name": "sale_",
					"type": "tuple"
				}
			],
			"name": "saleRecord",
			"outputs": [],
			"stateMutability": "nonpayable",
			"type": "function"
		},
		{
			"inputs": [
				{
					"internalType": "uint256",
					"name": "tokenId_",
					"type": "uint256"
				},
				{
					"internalType": "bytes1",
					"name": "status_",
					"type": "bytes1"
				}
			],
			"name": "saleUpdate",
			"outputs": [],
			"stateMutability": "nonpayable",
			"type": "function"
		},
		{
			"inputs": [
				{
					"internalType": "address",
					"name": "operator",
					"type": "address"
				},
				{
					"internalType": "bool",
					"name": "approved",
					"type": "bool"
				}
			],
			"name": "setApprovalForAll",
			"outputs": [],
			"stateMutability": "nonpayable",
			"type": "function"
		},
		{
			"inputs": [
				{
					"internalType": "uint128",
					"name": "voteId",
					"type": "uint128"
				},
				{
					"internalType": "uint256",
					"name": "start",
					"type": "uint256"
				},
				{
					"internalType": "uint256",
					"name": "end",
					"type": "uint256"
				}
			],
			"name": "setVote",
			"outputs": [],
			"stateMutability": "nonpayable",
			"type": "function"
		},
		{
			"inputs": [
				{
					"internalType": "bytes4",
					"name": "interfaceId",
					"type": "bytes4"
				}
			],
			"name": "supportsInterface",
			"outputs": [
				{
					"internalType": "bool",
					"name": "",
					"type": "bool"
				}
			],
			"stateMutability": "view",
			"type": "function"
		},
		{
			"inputs": [
				{
					"internalType": "address",
					"name": "newOwner",
					"type": "address"
				}
			],
			"name": "transferOwnership",
			"outputs": [],
			"stateMutability": "nonpayable",
			"type": "function"
		},
		{
			"inputs": [
				{
					"internalType": "uint256",
					"name": "tokenId",
					"type": "uint256"
				}
			],
			"name": "uri",
			"outputs": [
				{
					"internalType": "string",
					"name": "",
					"type": "string"
				}
			],
			"stateMutability": "view",
			"type": "function"
		},
		{
			"inputs": [
				{
					"components": [
						{
							"internalType": "address",
							"name": "from",
							"type": "address"
						},
						{
							"internalType": "uint128",
							"name": "voteId",
							"type": "uint128"
						},
						{
							"internalType": "bytes",
							"name": "data",
							"type": "bytes"
						}
					],
					"internalType": "struct GovernedNFT.BallotMessage",
					"name": "ballot",
					"type": "tuple"
				},
				{
					"internalType": "bytes",
					"name": "signature",
					"type": "bytes"
				}
			],
			"name": "verify",
			"outputs": [
				{
					"internalType": "bool",
					"name": "",
					"type": "bool"
				}
			],
			"stateMutability": "view",
			"type": "function"
		},
		{
			"inputs": [
				{
					"components": [
						{
							"internalType": "address",
							"name": "from",
							"type": "address"
						},
						{
							"internalType": "uint128",
							"name": "voteId",
							"type": "uint128"
						},
						{
							"internalType": "bytes",
							"name": "data",
							"type": "bytes"
						}
					],
					"internalType": "struct GovernedNFT.BallotMessage",
					"name": "ballot",
					"type": "tuple"
				},
				{
					"internalType": "bytes",
					"name": "signature",
					"type": "bytes"
				},
				{
					"internalType": "uint256[]",
					"name": "ids",
					"type": "uint256[]"
				}
			],
			"name": "vote",
			"outputs": [],
			"stateMutability": "nonpayable",
			"type": "function"
		},
		{
			"stateMutability": "payable",
			"type": "receive"
		}
	]
}